:10000000F5C0000024C1000022C1000020C1000092
:100010001EC100001CC100001AC1000018C1000070
:1000200016C1000014C1000012C1000010C1000080
:100030000EC100000CC100000AC1000008C1000090
:1000400006C1000004C1000002C1000000C10000A0
:10005000FEC00000FCC00000FAC000000C94A00824
:10006000F6C000000C9477080C944E08F0C0000015
:10007000EEC00000ECC00000EAC00000E8C00000D4
:10008000E6C00000E4C00000E2C00000E0C00000E4
:10009000DEC00000DCC00000DAC000000C94EA08FA
:1000A000D6C00000D4C00000D2C00000D0C0000004
:1000B000CEC00000CCC00000CAC00000C8C0000014
:1000C000C6C00000C4C00000C2C00000BEC700001F
:1000D00093C70000BCC0000066C700003BC700001B
:1000E000B6C0000000000A0B02090C0D0E08070341
:1000F00004010000000000000000000000000000FB
:1001000000000000000000000000000000000000EF
:1001100012111000000000000000000000000000AC
:100120000000000000000000000000002200250088
:1001300028002B002E0031003400020100000501D0
:1001400008010B0100002100240027002A002D00D7
:100150003000330001010000040107010A01050518
:100160000505070508080808020202020A0A08082D
:10017000040404040101010101010101030303035B
:1001800003030303040707070C0C0C0C0C0C0C0CEA
:100190000202020206060606060606060B0B0B0BFB
:1001A0000B0B0B0B01021020200808102040102020
:1001B000408002010201080402010102040810202B
:1001C0004080804020100804020180040201804029
:1001D0002010080402010804020101020408102092
:1001E00040800102040810204080090A11241FBE2B
:1001F000CFEFD1E2DEBFCDBF00E00CBF28E0A6EA22
:10020000B5E001C01D92A638B207E1F715E0A0E005
:10021000B2E0EAE1F1E200E00BBF02C007900D920C
:10022000A63AB107D9F710E0C6EFD0E000E006C06B
:1002300021970109802FFE010E94B20DC53FD10711
:1002400080E00807A9F70E94AE0A0C948B10D8CE64
:100250000F931F93CF93DF93EC019A01AB01E889D1
:10026000F98982E08083EC85FD8510820E851F85EB
:1002700060E079E08DE390E00E94900D215031091B
:10028000410951095695479537952795F8012083DF
:10029000188EEC89FD8986E08083EA89FB8980815C
:1002A00080618083EA89FB89808188608083EA8914
:1002B000FB89808180688083EA89FB8980818F7DCA
:1002C0008083DF91CF911F910F91089590E0FC0101
:1002D000EC55FE4F2491825A9E4FFC018491882355
:1002E00099F090E0880F991FFC01EC5BFE4FA591FF
:1002F000B491FC01E65DFE4F859194918FB7F8941F
:10030000EC91E22BEC938FBF08950F931F93CF9343
:10031000DF9330E020E0EB012796DC01A20FB31F52
:10032000FB0150E040E0EC17FD0739F00D91119111
:100330000113F9CF4F5F5F4FF6CF4730510559F0AA
:100340002F5F3F4F2931310541F780E0DF91CF9199
:100350001F910F91089581E0F9CFAF92BF92CF9294
:10036000DF92EF92FF920F931F93CF93DF93EC01F5
:100370006B017B01E40EF51E8B015801AC18BD0822
:100380000E151F05A1F12FB7F894809140069091AA
:100390004106A0914206B09143062FBF88879987F6
:1003A000AA87BB87E881F9810284F385E02DCE011D
:1003B000199597FF28C02FB7F89480914006909127
:1003C0004106A0914206B09143062FBF488559854A
:1003D0006A857B85841B950BA60BB70B4C815D81D1
:1003E0006E817F8184179507A607B707D8F2C501EC
:1003F000DF91CF911F910F91FF90EF90DF90CF9001
:10040000BF90AF900895F80181938F01B6CFAF925E
:10041000BF92CF92DF92EF92FF920F931F93CF93F1
:10042000DF936C017B018B01040F151FEB015E0153
:10043000AE18BF08C017D10759F06991D601ED91E8
:10044000FC910190F081E02DC6011995892B79F777
:10045000C501DF91CF911F910F91FF90EF90DF9039
:10046000CF90BF90AF900895FC01A089B1898C9185
:10047000A689B78982FD0FC09C91818D8F5F8F7394
:10048000228D821749F0A18DAE0FBF2FB11D5D9651
:100490009C93818F08958C910895FC01538D448D18
:1004A000252F30E0842F90E0821B930B541710F01F
:1004B000CF96089501970895FC01918D828D98172C
:1004C00061F0A28DAE0FBF2FB11D5D968C91928D04
:1004D0009F5F9F73928F90E008958FEF9FEF089535
:1004E000FC01918D828D981731F0828DE80FF11DFE
:1004F000858D90E008958FEF9FEF0895FC01918D19
:10050000228D892F90E0805C9F4F821B91098F7311
:100510009927089585E496E0F1DF21E0892B09F41D
:1005200020E0822F089582EE96E0E8DF21E0892B1B
:1005300009F420E0822F08958FE797E0DFDF21E0C4
:10054000892B09F420E0822F0895FC01A48DA80FC7
:10055000B92FB11DA35ABF4F2C91848D90E0019605
:100560008F739927848FA689B7892C93A089B18925
:100570008C91837080648C93938D848D981306C0C6
:100580000288F389E02D80818F7D80830895EF922A
:10059000FF920F931F93CF93DF93EC0181E0888F3D
:1005A0009B8D8C8D98131AC0E889F989808185FF0D
:1005B00015C09FB7F894EE89FF896083E889F989AF
:1005C00080818370806480839FBF81E090E0DF91B1
:1005D000CF911F910F91FF90EF900895F62E0B8D04
:1005E00010E00F5F1F4F0F731127E02E8C8D8E11BF
:1005F0000BC00FB607FCFACFE889F989808185FF27
:10060000F5CFCE01A2DFF2CFEB8DEC0FFD2FF11D68
:10061000E35AFF4FF0829FB7F8940B8FEA89FB896A
:1006200080818062D0CFCF93DF93EC01888D8823C7
:10063000B1F0AA89BB89E889F9898C9185FD03C04D
:10064000808186FD0CC00FB607FCF7CF8C9185FF2B
:10065000F2CF808185FFEDCFCE0177DFEACFDF914A
:10066000CF91089580E090E0892B21F065DF811122
:100670000E94000080E090E0892B49F080E090E04B
:10068000892B29F00E94000081110E94000080E067
:1006900090E0892B21F047DF81110E94000080E06B
:1006A00090E0892B21F036DF81110C940000089531
:1006B000282F30E0F901EC51FF4F9491F901EC55EE
:1006C000FE4F4491225A3E4FF9012491222309F40E
:1006D00035C0992311F191509231F8F4E92FF0E0EF
:1006E0008827EA58FC4F8F4F0C94B20DA703AB0339
:1006F00088039F03A3038D03AE03B403B803BE03B3
:10070000C203C603CC03D0038D03D403DA03DE0394
:10071000809180008F7780938000E22FF0E0EE0FD1
:10072000FF1FE65DFE4FA591B4918FB7F894EC9151
:10073000611148C040954E234C938FBF089580911E
:1007400080008F7DE8CF80918000877FE4CF84B5E3
:100750008F7784BDE2CF84B58F7DFBCF8091B000D1
:100760008F778093B000D9CF8091B0008F7DF9CF83
:10077000809190008F7780939000CFCF80919000F0
:100780008F7DF9CF80919000877FF5CF8091A00079
:100790008F778093A000C1CF8091A0008F7DF9CF8B
:1007A0008091A000877FF5CF809120018F77809383
:1007B0002001B3CF809120018F7DF9CF809120015E
:1007C000877FF5CF4E2BB8CF3FB7F89480913C068A
:1007D00090913D06A0913E06B0913F0626B5A89B9C
:1007E00005C02F3F19F00196A11DB11D3FBFBA2FC3
:1007F000A92F982F8827BC01CD01620F711D811D83
:10080000911D42E0660F771F881F991F4A95D1F707
:1008100008958F929F92AF92BF92CF92DF92EF9204
:10082000FF924B015C01D0DF6B017C01CDDF6C19C5
:100830007D098E099F09683E734081059105B0F3DB
:1008400021E0821A9108A108B10888EEC80E83E061
:10085000D81EE11CF11C81149104A104B10431F7EC
:10086000FF90EF90DF90CF90BF90AF909F908F90D0
:1008700008951F93CF93DF93C1E0C093D0058823E1
:1008800079F1D091B8001091BA008091BC008A7BB8
:100890008093BC0060E084E10BDF60E085E108DF6D
:1008A00010921506C09317061092160661E084E1B7
:1008B000FFDE61E085E1FCDE8091B9008E7F8093F0
:1008C000B9008091B9008D7F8093B90088E480934E
:1008D000B80085E48093BC001093BA00D093B800B0
:1008E000DF91CF911F9108952091F105260F3327B5
:1008F000331F21323105ECF420911506FC0190E004
:1009000080E0243069F082E00895A091F105219102
:10091000AC014F525A4FA40FB52FB11D2C93019625
:10092000861798F38091F105680F6093F10580E0D8
:10093000089581E0089508958FEF9FEF08958FEF58
:100940009FEF08958091CA0590E091958195910956
:100950000895CF92DF92EF92FF920F931F93CF9360
:10096000DF937C01CB018A012091C905222389F004
:10097000EB016B01C40ED51ECC15DD0561F069914C
:10098000D701ED91FC910190F081E02DC7011995FF
:10099000F3CF642FA9DFC801DF91CF911F910F9191
:1009A000FF90EF90DF90CF900895CF93DF931F9249
:1009B000CDB7DEB769832091C9052223F9F02091D4
:1009C000C805203258F021E030E0FC013383228357
:1009D00090E080E00F90DF91CF9108958091C7055E
:1009E000E82FF0E0E955FA4F998190838F5F80936B
:1009F000C7058093C80581E090E0ECCF61E0CE01AF
:100A0000019672DFF8CFCF92DF92EF92FF920F93B1
:100A10001F93CF93DF93FC01C48121E02093C9058C
:100A2000C093A6051092C7051092C8058385682B50
:100A30008CE198E0BADFD091C805D13208F08CC0C3
:100A4000C3DE6B017C0180911506811162C082E0DA
:100A50008093150681E0809317068FEF809314062C
:100A600010923906D0933806A7EAB5E0E8E1F6E03F
:100A700080E0D81380C010923A0680913A06CC0FDD
:100A8000C82BC0933A0680911606813009F077C0D2
:100A90001092160699DE6B017C0180913A068093D4
:100AA000BB008091CC059091CD05A091CE05B09171
:100AB000CF05892B8A2B8B2B91F086DE0091CC05FC
:100AC0001091CD052091CE053091CF056C197D098F
:100AD0008E099F090617170728073907D0F180915B
:100AE000BC0083FDDACF85EC8093BC006DDE6B012A
:100AF0007C0180911506823009F443C08091140670
:100B00008F3F51F180911406803231F180911406AB
:100B100023C08091CC059091CD05A091CE05B091D8
:100B2000CF05892B8A2B8B2B09F48DCF4DDE0091BD
:100B3000CC051091CD052091CE053091CF056C19D3
:100B40007D098E099F09061717072807390708F03E
:100B50007ACF8091CB058DDE1092C7051092C80523
:100B60001092C905DF91CF911F910F91FF90EF90E7
:100B7000DF90CF9008959D9191938F5F7ACF85EE0E
:100B8000B3CF8091CC059091CD05A091CE05B091C9
:100B9000CF05892B8A2B8B2B09F4ABCF15DE009167
:100BA000CC051091CD052091CE053091CF056C1963
:100BB0007D098E099F09061717072807390708F0CE
:100BC00098CFC7CF089590E080E008950F931F93CA
:100BD000CF938C01C62F646016DF6C2F6B7FC8012A
:100BE00012DF83EC90E00197F1F7CF911F910F9105
:100BF0000895FF920F931F93CF93DF938C01D62F0D
:100C0000C42F862F807FF82EF42A6F2DC801FBDEBB
:100C10006F2DC801DBDF80E1D89FB0011124C62B06
:100C20006C2FC801F0DE6C2FC801DF91CF911F91AE
:100C30000F91FF90CBCF41E0DCDF81E090E00895A1
:100C4000FB0101900020E9F73197AF01461B570BDC
:100C5000DC01ED91FC910280F381E02D19940F935A
:100C60001F93CF93DF9300D000D01F921F92CDB778
:100C7000DEB78B0198E0E0E0F2E0DE011196019032
:100C80000D929A95E1F790913008981710F48FEF34
:100C9000890F90E0880F991F21E030E02C0F3D1F55
:100CA000820F931FFC016081606840E088E298E059
:100CB000A0DF0115110571F0B80188E298E02896CF
:100CC0000FB6F894DEBF0FBECDBFDF91CF911F915D
:100CD0000F91B6CF28960FB6F894DEBF0FBECDBFEA
:100CE000DF91CF911F910F9108950F931F93CF9391
:100CF000DF938C01D0E0C0E06115710511F0A0DF39
:100D0000EC0160E672E0C8019BDF8C0F9D1FDF9154
:100D1000CF911F910F910895CF92DF92EF92FF92A2
:100D20000F931F93CF93DF93CDB7DEB7E1970FB645
:100D3000F894DEBF0FBECDBF64E670E080E090E0C7
:100D400068DD8091360890913708DC01ED91FC91C7
:100D50000084F185E02D19958C0118161906E4F030
:100D6000EAE3F8E080E2DF011D928A95E9F764E6A4
:100D700070E080E090E04DDD80E0E1960FB6F89401
:100D8000DEBF0FBECDBFDF91CF911F910F91FF90BE
:100D9000EF90DF90CF90089563E672E08FE797E0E1
:100DA000A4DF64E670E080E090E033DD1F930F93F2
:100DB0008CE692E09F938F937E01B2E2EB0EF11CE2
:100DC000FF92EF92E0D6B7018FE797E08EDF64E6FF
:100DD00070E080E090E01DDD0F900F900F900F907D
:100DE0000F900F90013211050CF43DC065E772E0E1
:100DF0008FE797E07ADF64E670E080E090E009DD5D
:100E00006EE772E08FE797E01BDFA8016AE378E006
:100E10008091360890913708A0DA9C0150E040E0BC
:100E200019A28E010F5D1F4F8AE0C82ED12CE12C34
:100E3000F12CCA01B901A701960172D6605DF801D3
:100E400062938F01211531054105510591F73097C6
:100E500021F0BF018FE797E0F3DE60E672E08FE7F5
:100E600097E0EEDE89CFA8016AE378E0809136084A
:100E70009091370872DA81E080CFCF934DDFC82F91
:100E8000882329F06AE378E08FE797E02EDF8C2F44
:100E9000CF910895CF93DF93EC016CE972E08FE777
:100EA00097E0CEDEBE018FE797E01FDFBE018091A5
:100EB000360890913708DF91CF9117CF6DEA72E035
:100EC0008FE797E012DF61E087E1F2DB64EF71E02A
:100ED00080E090E09EDC61EC72E08FE797E005DF58
:100EE00061E089E1E5CB85ED8093BC008091CC0584
:100EF0009091CD05A091CE05B091CF050796A11D8B
:100F0000B11D23E0B695A795979587952A95D1F7BA
:100F10002091BC0024FD03C0109215060895409155
:100F2000CC055091CD056091CE057091CF05452B34
:100F3000462B472B69F30097A105B10541F025E346
:100F40002A95F1F700000197A109B109E1CF80913D
:100F5000CB058FCC1F920F920FB60F9211240BB6B8
:100F60000F922F933F934F935F936F937F938F9342
:100F70009F93AF93BF93EF93FF9385E496E0E5DAF9
:100F8000FF91EF91BF91AF919F918F917F916F9161
:100F90005F914F913F912F910F900BBE0F900FBE1D
:100FA0000F901F9018951F920F920FB60F92112459
:100FB0000BB60F922F933F934F935F936F937F9353
:100FC0008F939F93AF93BF93EF93FF9385E496E046
:100FD0004BDAFF91EF91BF91AF919F918F917F91EC
:100FE0006F915F914F913F912F910F900BBE0F909A
:100FF0000FBE0F901F9018951F920F920FB60F9271
:1010000011240BB60F922F933F934F935F936F93DF
:101010007F938F939F93AF93BF93EF93FF9382EE52
:1010200096E093DAFF91EF91BF91AF919F918F91ED
:101030007F916F915F914F913F912F910F900BBED8
:101040000F900FBE0F901F9018951F920F920FB622
:101050000F9211240BB60F922F933F934F935F93F0
:101060006F937F938F939F93AF93BF93EF93FF9370
:1010700082EE96E0F9D9FF91EF91BF91AF919F91E8
:101080008F917F916F915F914F913F912F910F9031
:101090000BBE0F900FBE0F901F9018951F920F92CE
:1010A0000FB60F9211240BB60F922F933F934F93CD
:1010B0005F936F937F938F939F93AF93BF93EF93C0
:1010C000FF938FE797E041DAFF91EF91BF91AF91E6
:1010D0009F918F917F916F915F914F913F912F9150
:1010E0000F900BBE0F900FBE0F901F9018951F9280
:1010F0000F920FB60F9211240BB60F922F933F93BE
:101100004F935F936F937F938F939F93AF93BF930F
:10111000EF93FF938FE797E0A7D9FF91EF91BF91EE
:10112000AF919F918F917F916F915F914F913F917F
:101130002F910F900BBE0F900FBE0F901F90189520
:101140001F920F920FB60F9211242F933F938F93FC
:101150009F93AF93BF938091400690914106A091D9
:101160004206B091430630913B0623E0230F2D3712
:1011700058F50196A11DB11D20933B0680934006B2
:1011800090934106A0934206B093430680913C069B
:1011900090913D06A0913E06B0913F060196A11D9B
:1011A000B11D80933C0690933D06A0933E06B093FC
:1011B0003F06BF91AF919F918F913F912F910F90DB
:1011C0000FBE0F901F90189526E8230F0296A11DC1
:1011D000B11DD2CF1F920F920FB60F9211240BB6F2
:1011E0000F922F933F934F935F936F937F938F93C0
:1011F0009F93AF93BF93EF93FF938091B900887F44
:10120000803609F44CC008F03FC0883209F4A6C00B
:1012100028F5803109F49AC0C8F4882309F4F6C08F
:10122000883009F493C0FF91EF91BF91AF919F91E6
:101230008F917F916F915F914F913F912F910F907F
:101240000BBE0F900FBE0F901F901895883109F4B8
:1012500085C0803241F78093140614C0803409F4AD
:101260009AC040F48033B9F38833E9F680931406CA
:1012700085ECADC0803509F482C0883509F493C08F
:10128000883489F630DECFCF883909F48AC038F542
:10129000883729F050F4883611F0803721F683E042
:1012A000809315061092130655C0883809F479C04A
:1012B000803919F0803809F0B6CF8091130680325A
:1012C00008F06FC0E091130681E08E0F8093130643
:1012D0008091BB00F0E0ED50FA4F80833BC0803B33
:1012E00039F0D0F4803A09F477C0883A09F09BCFFE
:1012F00084E0809315061092F2051092F105F0E05B
:10130000E0E019958091F10581110FC081E0809393
:10131000F1051092D10509C0803C09F4A9CF883CA1
:1013200009F4A6CF883B09F07ECFE091F20581E079
:101330008E0F8093F205F0E0EF52FA4F8081809398
:10134000BB009091F2058091F10529C080913A0689
:101350008093BB0085EC8093BC0065CF90913906EB
:1013600080913806981758F5E091390681E08E0F84
:1013700080933906F0E0E85EF94F8081E9CFE09193
:10138000390681E08E0F809339068091BB00F0E032
:10139000E85EF94F8083909139068091380698175E
:1013A000C8F285E8D8CFE091390681E08E0F8093AE
:1013B00039068091BB00F0E0E85EF94F80838091B0
:1013C000170681115FCF81E08093160684EA80932F
:1013D000BC001092150627CF85EC8093BC001092BC
:1013E000150680911306803230F4E0911306F0E088
:1013F000ED50FA4F10826091130670E083EF95E094
:10140000F0E0E0E01995109213060DCF109214064B
:1014100039CFE5E4F6E01382128288EE93E0A0E093
:10142000B0E084839583A683B78324E332E03183DD
:10143000208345E351E05587448744E351E05787D3
:10144000468740E351E0518B408B41E351E0538BA1
:10145000428B42E351E0558B448B46E351E0578B7E
:10146000468B118E128E138E148EE2EEF6E01382EE
:10147000128284839583A683B7833183208345EDCD
:1014800050E05587448744ED50E05787468740ED4C
:1014900050E0518B408B41ED50E0538B428B42ED3D
:1014A00050E0558B448B46ED50E0578B468B118EA8
:1014B000128E138E148EEFE7F7E01382128284836C
:1014C0009583A683B7833183208325EC30E035876D
:1014D000248724EC30E03787268720EC30E0318BFE
:1014E000208B21EC30E0338B228B22EC30E0358BEB
:1014F000248B26EC30E0378B268B118E128E138EC8
:10150000148EECE1F8E01382128284839583A68323
:10151000B78386E492E091838083E8E2F8E0138267
:10152000128288E592E09183808387E2848380E160
:10153000818782E082871386E4E3F8E081E090E02F
:1015400091838083148215828CE0E0EEF2E0AAE5BC
:10155000B8E001900D928A95E1F70895CF93DF935B
:10156000CDB7DEB7C05AD1090FB6F894DEBF0FBEB3
:10157000CDBF789484B5826084BD84B5816084BD1C
:1015800085B5826085BD85B5816085BD80916E0021
:10159000816080936E001092810080918100826052
:1015A000809381008091810081608093810080918F
:1015B00080008160809380008091B100846080937E
:1015C000B1008091B00081608093B0008091910063
:1015D000826080939100809191008160809391005E
:1015E000809190008160809390008091A100826042
:1015F0008093A1008091A10081608093A1008091DF
:10160000A00081608093A00080912101826080937E
:10161000210180912101816080932101809120012D
:1016200081608093200180917A00846080937A00A9
:1016300080917A00826080937A0080917A00816044
:1016400080937A0080917A00806880937A0010926B
:10165000C1008DE00E94660160E08DE029D840E87D
:1016600055E260E070E08FE797E00E9428016DEEA0
:1016700072E08FE797E039DB60E073E08FE797E097
:1016800034DB89E10E94660187E10E94660116DC75
:1016900062E273E08FE797E028DB6FE373E08FE7A8
:1016A00097E0CEDA8091340890913508009709F4DC
:1016B000B9C0019709F495C1009136081091370817
:1016C000D801ED91FC910680F781E02DC8011995B4
:1016D000D8015296ED91FC91539780818F7E808343
:1016E0005296ED91FC9153978081877F808352962B
:1016F000ED91FC91539780818F7780835296ED9185
:10170000FC91539780818F7D80835A968C915A9754
:1017100059968C9364E670E080E090E07AD840E8D7
:1017200055E260E070E080913608909137080E94A1
:10173000280181E080933808109244066AE274E040
:101740008FE797E0D2DA99DB811185C18091440659
:101750008F77809344068091440687FF60C080FFA6
:1017600050C060E087E10E94580360E089E10E9478
:10177000580360E175E08FE797E0B7DA64E670E060
:1017800080E090E046D869E275E08FE797E0ADDA57
:1017900061E089E10E94580364EF71E080E090E02D
:1017A00038D865E375E08FE797E09FDA61E087E17D
:1017B0000E94580364EF71E080E090E02AD863E66D
:1017C00075E08FE797E091DA60E087E10E945803C7
:1017D00060E777E180E090E01CD868E775E08FE78C
:1017E00097E083DA60E089E10E94580368EC70E0DA
:1017F00080E090E00ED862DB809144068E7F80937B
:1018000044061091440661E011FF60E087E10E9408
:10181000580361E012FF60E089E10E9458030E94D2
:10182000320391CF85E496E0909337088093360891
:1018300040E855E260E070E00E94280162E573E054
:1018400090E080E00CDA8AE593E024DB8DE593E01C
:1018500021DB86E693E01EDB8FE693E01BDB64EF83
:1018600071E080E090E00E94090468E773E090E096
:1018700080E0F5D969E873E08FE797E036DA809188
:10188000360890913708DC01ED91FC910084F185D8
:10189000E02D1995892B61F08091360890913708D9
:1018A000DC01ED91FC910284F385E02D1995E7CFE1
:1018B00085E993E0EFDA68EE73E080E090E00E9463
:1018C00009040091360810913708D801ED91FC9178
:1018D0000084F185E02DC8011995AC01BE016F5F50
:1018E0007F4FC8010E94AD01BE016F5F7F4F8FE740
:1018F00097E0FBD98AE5C82E88E0D82E9EE9A92E6C
:1019000093E0B92E7E01B1E8EB0EF11C01E0DF920D
:10191000CF92BF92AF92FF92EF9235D1B7018FE78E
:1019200097E0E3D9C701B6DA68EF7AE280E090E0A9
:101930000E940904F1D9182F6AE378E08FE797E055
:10194000D4D90F900F900F900F900F900F9011110E
:1019500011C067EA73E081E090E081D960ED77E043
:1019600080E090E00E94090468EB73E081E090E081
:1019700076D9CDCF69EC73E08AE398E0FBD0892B70
:1019800089F462ED73E081E090E069D90093390851
:1019900068EE73E080E090E00E940904112309F4EE
:1019A000B6CF8ACE6AED73E08AE398E0E3D063EEC7
:1019B00073E0892B49F069EE73E08AE398E0DAD0AE
:1019C000892B49F462EF73E081E090E048D91092EE
:1019D000390810E0DDCF6AE378E081E090E03FD99C
:1019E000F8CF82EE96E0909337088093360840E077
:1019F00056E960E070E00E9428016AEF73E08FE72B
:101A000097E073D98AE593E045DA64E670E080E018
:101A100090E00E94090431DA8CE094E03BDA64E65D
:101A200070E080E090E00E94090427DA85E194E00C
:101A300031DA64E670E080E090E00E9409041DDA8B
:101A400081E294E027DA64E670E080E090E00E94B2
:101A5000090413DA31CE63E474E08FE797E045D9E7
:101A600010914406812F80688093440668E272E0FA
:101A70008AE398E00E948501882341F01168109361
:101A8000440669E574E08FE797E02FD960E272E0E1
:101A90008AE398E00E948501882351F080914406F2
:101AA00082608093440662E874E08FE797E01DD976
:101AB00068E172E08AE398E00E948501882351F092
:101AC000809144068D7F8093440665EA74E08FE739
:101AD00097E00BD960E172E08AE398E00E9485010B
:101AE000882351F08091440684608093440669EC19
:101AF00074E08FE797E0F9D868E072E08AE398E055
:101B00000E948501882309F426CE809144068B7FAC
:101B1000809344066CEE74E08FE797E0E6D81BCE26
:101B2000A1E21A2EAA1BBB1BFD010DC0AA1FBB1FE1
:101B3000EE1FFF1FA217B307E407F50720F0A21B53
:101B4000B30BE40BF50B661F771F881F991F1A94C0
:101B500069F760957095809590959B01AC01BD01EA
:101B6000CF010895EE0FFF1F881F8BBF0790F691DE
:101B7000E02D1994FB01DC018D9101908019011079
:101B8000D9F3990B08950F931F93CF93DF93CDB79C
:101B9000DEB72E970FB6F894DEBF0FBECDBF0E890D
:101BA0001F8986E08C831A8309838FEF9FE79E83CA
:101BB0008D83AE01465E5F4F688D798DCE010196B3
:101BC00011D02F813885020F131FF80110822E9635
:101BD0000FB6F894DEBF0FBECDBFDF91CF911F913E
:101BE0000F9108952F923F924F925F926F927F9242
:101BF0008F929F92AF92BF92CF92DF92EF92FF921D
:101C00000F931F93CF93DF9300D000D000D01F928B
:101C10001F92CDB7DEB77C013B018A01FC01178220
:101C20001682838181FFD0C1CE0101965C01F7014C
:101C30009381F30193FD859193FF81913F01882367
:101C400009F449C1853239F493FD859193FF81915F
:101C50003F01853221F4B70190E0CFD1E8CF912C3C
:101C6000212C312CFFE1F31538F08B3211F190F477
:101C7000803209F1833229F137FC3CC020ED280F76
:101C80002A3050F536FE20C08AE0989E200D11249F
:101C9000922E06C08D3291F0803371F7689430F83F
:101CA000F30193FD859193FF81913F018111DACF7B
:101CB00021C0689431F8689432F8F2CF689433F810
:101CC000EFCF689434F8ECCFEAE02E9E200D11247B
:101CD000222E689435F8E4CF8E3229F436FCFBC00E
:101CE000689436F8DDCF8C3619F4689437F8D8CF7D
:101CF0008836B1F2982F9F7D95549330D8F0833673
:101D000091F18337B1F1833509F05EC02801F2E02B
:101D10004F0E511CF801C080D180692D70E036FC57
:101D200002C06FEF7FEFC60152D14C01689437F8C3
:101D300082010AC00C5F1F4FFFE3F983882483945C
:101D4000912C6501E89437F833FE2AC0522C811497
:101D5000910459F5552009F46ACFB70180E290E06B
:101D60004CD15A94F7CFF801808189830E5F1F4FC1
:101D7000E5CF2801F2E04F0E511CF801C080D18060
:101D8000692D70E036FC02C06FEF7FEFC6012AD1EB
:101D90004C018201D7CFB70180E290E02ED12A9486
:101DA0002814190409F0B8F7D1CFF60137FC859152
:101DB00037FE81916F01B70190E01FD151105A9405
:101DC000F1E08F1A9108C3CF843619F0893609F0F3
:101DD00073C0F80137FE67C0608171818281938191
:101DE0000C5F1F4FF32DFF763F2E97FF09C0909594
:101DF0008095709561957F4F8F4F9F4F689437F80E
:101E00002AE030E0A50129D1C82ECA188C2C432C19
:101E100036FE0CC0E89440F8C91440F434FE05C006
:101E200032FC03C0F32DFE7E4F2E892C44FEA6C04B
:101E3000FE01EC0DF11D8081803309F098C0242D46
:101E4000297E422E842D8870582E43FCA5C040FE6A
:101E50009FC09C2C821418F42C0C922C981844FED1
:101E6000A1C0B70180E390E0C8D042FE08C088E777
:101E700090E041FE02C088E590E0B701BED0C914F1
:101E800008F49CC0CA94D12C9FEFC91AD90ACA0C75
:101E9000DB1CF60182916F01B70190E0AED0AC146B
:101EA000BD04B9F757CF60817181072E000C880BF4
:101EB000990B0E5F1F4F96CFD32CE894D4F82AE0ED
:101EC00030E08537E1F1232D297FD22E8F36A9F11D
:101ED000F0F4883551F1F701868197812B960FB682
:101EE000F894DEBF0FBECDBFDF91CF911F910F9150
:101EF000FF90EF90DF90CF90BF90AF909F908F902A
:101F00007F906F905F904F903F902F900895803713
:101F100049F0883701F7D4FE02C06894D2F820E176
:101F200030E00DC06894D4F8F6CF34FE03C0822FA1
:101F30008660D82E20E132E002C028E030E0F801CF
:101F4000D7FE0EC060817181828193810C5F1F4F2B
:101F5000A50183D0C82ECA183D2CE89437F856CF77
:101F60006081718190E080E00E5F1F4FF1CF42FCF5
:101F700002C0839467CF8394839464CF842D867842
:101F800009F460CFF6CFB70180E290E036D08394B9
:101F90008214C8F3512C63CF522C5818821408F4C1
:101FA0005ECFF8CF842D867809F469CF8BE241FEAD
:101FB00080E247FC8DE2B70190E060CFB70180E39B
:101FC00090E01BD09A945BCF8FEF9FEF87CFFC01FF
:101FD0000590615070400110D8F7809590958E0F54
:101FE0009F1F0895FC016150704001900110D8F7C7
:101FF000809590958E0F9F1F08950F931F93CF93F9
:10200000DF93182F092FEB018B8181FD09C01FEF92
:102010000FEF812F902FDF91CF911F910F91089596
:1020200082FF14C02E813F818C819D812817390742
:102030003CF4E881F981CF0101969983888310836C
:102040008E819F8101969F838E83E3CFE885F985FA
:10205000812F1995892BA1F3DACFFA01AA2728300D
:1020600051F1203181F1E8946F936E7F6E5F7F4F65
:102070008F4F9F4FAF4FB1E03ED0B4E03CD0670FE1
:10208000781F891F9A1FA11D680F791F8A1F911D34
:10209000A11D6A0F711D811D911DA11D20D009F484
:1020A00068943F912AE0269F11243019305D3193C6
:1020B000DEF6CF010895462F4770405D4193B3E0AF
:1020C0000FD0C9F7F6CF462F4F70405D4A3318F056
:1020D000495D31FD4052419302D0A9F7EACFB4E007
:1020E000A6959795879577956795BA95C9F70097BF
:1020F0006105710508959B01AC010A2E0694579560
:10210000479537952795BA95C9F7620F731F841FB6
:0A211000951FA01D0895F894FFCF5D
:10211A0000004000140054004558485F5030300019
:10212A004558485F503031004558485F56303000B6
:10213A004558485F563031004558485F43303100B2
:10214A0000000000C70207024D0213037E025C0270
:10215A00700200000000D504A904E3059B04A20450
:10216A009F049C04000000001B060702E305E20529
:10217A000D0A00484153204441544100256420423D
:10218A0079746573004F564552464C4F57004F7647
:10219A006572666C6F772C2072656164696E672060
:1021AA00746F2073657269616C3A200053656E64BE
:1021BA00696E67206D6573736167653A00456E6184
:1021CA00626C656420636F6E74726F6C2070696EE6
:1021DA0000456E61626C6564205057522C2076610E
:1021EA006C76652073686F756C64206F70656E001D
:1021FA003030314441353639303231450053657219
:10220A0069616C20696E697469616C697A656400D8
:10221A00496E697469616C697A696E672045786884
:10222A006175737420436F6E74726F6C6C65722E75
:10223A002E00496E697469616C697A696E6720411A
:10224A006E64726F696420436F6D6D732E2E004940
:10225A006E697469616C697A696E672042542E2EC0
:10226A002E00425420496E69740041540041542B97
:10227A00524F4C45310041542B494D4D4531004197
:10228A00542B524553455400425420436F6E6E6599
:10229A006374696E672E2E2E00466C757368696EBC
:1022AA00672042540041542B444953433F00415450
:1022BA002B434F4E2573004E4F20444154412C204E
:1022CA0057414954494E47002020202020202020F1
:1022DA002020202020202020004F4B2B434F4E4E01
:1022EA00410053554343455353004F4B2B434F4EE5
:1022FA004E45004552524F52004F4B2B434F4E4EC4
:10230A00460054494D454F555400436F6E66696700
:10231A007572696E672042542E2E2E0041542B503E
:10232A005357443F0041542B56455253494F4E3F51
:10233A000041542B414444523F00496E697469611B
:10234A006C697A6174696F6E20636F6D706C657405
:10235A00652E005570646174696E6720616E6472DF
:10236A006F696420636F6D6D004578686175737479
:10237A002063616C6962726174696F6E20666C6158
:10238A0067206368616E67656420746F2074727574
:10239A006500457868617573742076616C7665208E
:1023AA00666C6167206368616E67656420746F207C
:1023BA007472756500457868617573742076616C0E
:1023CA00766520666C6167206368616E6765642064
:1023DA00746F2066616C7365004578686175737403
:1023EA0020706F77657220666C6167206368616E22
:1023FA0067656420746F207472756500457868613A
:10240A0075737420706F77657220666C61672063DC
:10241A0068616E67656420746F2066616C7365001D
:10242A00496E697469616C697A6564204578686186
:10243A007573742070696E7300456E61626C6564B1
:10244A002070777200456E61626C656420636F6EFE
:10245A0074726F6C2070696E2C2063616C69627291
:10246A006174696F6E2073686F756C642073746130
:10247A0072740044697361626C656420636F6E7480
:10248A00726F6C2070696E0044697361626C656476
:10249A00207077722C2063616C6962726174696F53
:1024AA006E2073686F756C6420626520636F6D704F
:0624BA006C65746564000E
:020000023000CC
:10E000000D9489F10D94B2F10D94B2F10D94B2F129
:10E010000D94B2F10D94B2F10D94B2F10D94B2F1F0
:10E020000D94B2F10D94B2F10D94B2F10D94B2F1E0
:10E030000D94B2F10D94B2F10D94B2F10D94B2F1D0
:10E040000D94B2F10D94B2F10D94B2F10D94B2F1C0
:10E050000D94B2F10D94B2F10D94B2F10D94B2F1B0
:10E060000D94B2F10D94B2F10D94B2F10D94B2F1A0
:10E070000D94B2F10D94B2F10D94B2F10D94B2F190
:10E080000D94B2F10D94B2F10D94B2F10D94B2F180
:10E090000D94B2F10D94B2F10D94B2F10D94B2F170
:10E0A0000D94B2F10D94B2F10D94B2F10D94B2F160
:10E0B0000D94B2F10D94B2F10D94B2F10D94B2F150
:10E0C0000D94B2F10D94B2F10D94B2F10D94B2F140
:10E0D0000D94B2F10D94B2F10D94B2F10D94B2F130
:10E0E0000D94B2F141546D656761323536300041AF
:10E0F000726475696E6F206578706C6F72657220DE
:10E1000073746B3530305632206279204D4C530099
:10E11000426F6F746C6F616465723E004875683F52
:10E1200000436F6D70696C6564206F6E203D200048
:10E130004350552054797065202020203D20005FF9
:10E140005F4156525F415243485F5F3D2000415658
:10E1500052204C696243205665723D20004743437C
:10E160002056657273696F6E203D20004350552024
:10E1700049442020202020203D20004C6F7720663D
:10E18000757365202020203D20004869676820665F
:10E190007573652020203D200045787420667573D6
:10E1A00065202020203D20004C6F636B2066757336
:10E1B000652020203D20004D617220203720323024
:10E1C000313300312E362E3800342E332E350056A2
:10E1D00023202020414444522020206F7020636F70
:10E1E00064652020202020696E73747275637469E1
:10E1F0006F6E2061646472202020496E74657272B3
:10E20000757074006E6F20766563746F7200726A49
:10E210006D702020006A6D70200057686174207056
:10E220006F72743A00506F7274206E6F7420737541
:10E2300070706F72746564004D7573742062652030
:10E2400061206C6574746572002000577269747483
:10E25000696E672045450052656164696E672045B7
:10E26000450045452065727220636E743D00504F35
:10E27000525400303D5A65726F2061646472003FF1
:10E280003D43505520737461747300403D454550C3
:10E29000524F4D207465737400423D426C696E6B41
:10E2A000204C454400453D44756D70204545505215
:10E2B0004F4D00463D44756D7020464C415348001B
:10E2C000483D48656C70004C3D4C69737420492F83
:10E2D0004F20506F72747300513D51756974005234
:10E2E0003D44756D702052414D00563D73686F7707
:10E2F00020696E7465727275707420566563746FF0
:10E30000727300593D506F727420626C696E6B00BD
:10E310002A0011241FBECFEFD1E2DEBFCDBF01E046
:10E320000CBF12E0A0E0B2E0EEE1FDEF03E00BBFB6
:10E3300002C007900D92A030B107D9F712E0A0E01B
:10E34000B2E001C01D92AE30B107E1F70F9460F367
:10E350000D948DFE01E20EBF0FEF0DBF11241FBE05
:10E360000D9460F30D9400F020E030E040ED57E0B4
:10E3700005C0FA013197F1F72F5F3F4F2817390792
:10E38000C0F308959C01260F311DC901A0E0B0E043
:10E390002F5F3F4FABBFFC018791882361F08093D3
:10E3A000C6008091C00086FFFCCF8091C0008064D1
:10E3B0008093C000EACF08958DE08093C6008091DD
:10E3C000C00086FFFCCF8091C00080648093C000B5
:10E3D0008AE08093C6008091C00086FFFCCF8091C8
:10E3E000C00080648093C00008950F94C2F10F9420
:10E3F000DCF10895FC019081992359F09093C600B7
:10E400008091C00086FFFCCF8091C0008064809323
:10E41000C0003196992379F70895282F982F929567
:10E420009F70892F805D8A3308F0895F8093C600D2
:10E430008091C00086FFFCCF8091C00080648093F3
:10E44000C000822F8F70982F905D9A3308F0995FEB
:10E450009093C6008091C00086FFFCCF8091C000E1
:10E4600080648093C00008959C01FB01853691056E
:10E470001CF46330710594F0C90164E670E00F94F8
:10E480002EFE605D7F4F6093C6008091C00086FFC6
:10E49000FCCF8091C00080648093C0002B30310598
:10E4A00014F43297B4F0C90164E670E00F942EFEC4
:10E4B0006AE070E00F942EFE605D7F4F6093C600AF
:10E4C0008091C00086FFFCCF8091C0008064809363
:10E4D000C000C9016AE070E00F942EFEC0968093E0
:10E4E000C6008091C00086FFFCCF8091C000806490
:10E4F0008093C00008951F93182F8EE692EE60E07F
:10E500000F94C2F11093C6008091C00086FFFCCF2B
:10E510008091C00080648093C0000F94DCF11F9153
:10E5200008952F923F924F925F926F927F928F92B7
:10E530009F92AF92BF92CF92DF92EF92FF920F9392
:10E540001F93DF93CF93CDB7DEB762970FB6F894E2
:10E55000DEBF0FBECDBF382E622ECA01DB015C01CB
:10E560006D01772420E2222E2E010894411C511CBB
:10E570008BC081E0A81680E0B80681E0C80680E084
:10E58000D80628F0C601AA27BB270F940DF2BB2797
:10E59000AD2D9C2D8B2D0F940DF28A2D0F940DF225
:10E5A0002092C6008091C00086FFFCCF8091C00001
:10E5B00080648093C0009DE29093C6008091C0006B
:10E5C00086FFFCCF8091C00080648093C0002092C1
:10E5D000C6008091C00086FFFCCF8091C00080649F
:10E5E0008093C00019828601750188249924A1E0D6
:10E5F0003A1651F03A1620F0B2E03B1661F409C029
:10E600000BBFF701779007C0C7010F9477FE782EF4
:10E6100002C0F7017080872D0F940DF22092C60082
:10E620008091C00086FFFCCF8091C0008064809301
:10E63000C000872D8052F401EF70F0708F3520F408
:10E64000E40DF51D708204C0E40DF51D8EE280839B
:10E650000894E11CF11C011D111D0894811C911CE2
:10E6600090E18916910409F0C2CF80E190E0A0E02A
:10E67000B0E0A80EB91ECA1EDB1E198AC2010F9493
:10E68000FAF10F94DCF16A94662009F072CF629679
:10E690000FB6F894DEBF0FBECDBFCF91DF911F91B3
:10E6A0000F91FF90EF90DF90CF90BF90AF909F9031
:10E6B0008F907F906F905F904F903F902F90089534
:10E6C0002F923F924F925F926F927F928F929F9282
:10E6D000AF92BF92CF92DF92EF92FF920F931F9370
:10E6E000DF93CF93CDB7DEB7CD53D1400FB6F894BB
:10E6F000DEBF0FBECDBF01E20EBF0FEF0DBF94B75F
:10E70000F894A89514BE80916000886180936000A1
:10E7100010926000789493FF05C0E0910002F091A0
:10E7200001021995279A2F9A8091C00082608093E8
:10E73000C00080E18093C40088E18093C1000000A4
:10E74000EE24FF24870144E0A42EB12CCC24DD2448
:10E7500024C0C5010197F1F70894E11CF11C011DCB
:10E76000111D21E2E2162EE4F20620E0020720E06D
:10E77000120718F031E0C32ED12CC801B70127ECE5
:10E780003BE140E050E00F9441FE611571058105C9
:10E79000910519F485B1805885B98091C00087FD35
:10E7A00003C0C114D104A9F2A6014F5F5F4FC25E3E
:10E7B000DE4F59834883CE51D140C25EDE4F8881FF
:10E7C0009981CE51D140019711F00D9410FEC05D9A
:10E7D000DE4F19821882C053D14060E0C15DDE4F28
:10E7E0001882CF52D14088249924C35DDE4F19820C
:10E7F0001882CD52D140C05EDE4F188219821A8233
:10E800001B82C052D140CE5CDE4F188219821A8220
:10E810001B82C253D140EE24FF2487010BBFF701B6
:10E8200007911691C45CDE4F19830883CC53D14005
:10E830000D940BFEC25EDE4F28813981CE51D1404E
:10E840002130310509F52091C600C25EDE4F1982E4
:10E850001882CE51D14022C02F5F3F4F4F4F5F4FA4
:10E86000213082E138078AE7480780E0580780F0C6
:10E87000C45CDE4FE881F981CC53D140EF5FFF4F9C
:10E8800019F0EE27FF27099420E030E040E050E047
:10E890008091C00087FFE0CF2091C600C35DDE4FAE
:10E8A00048815981CD52D1404F5F5F4FC35DDE4FEC
:10E8B00059834883CD52D140213209F063C64A3092
:10E8C000510508F05FC60894811C911C53E0851621
:10E8D000910409F059C600E010E018C081E280936D
:10E8E000C6008091C00086FFFCCF8091C00080648C
:10E8F0008093C0002F5F3F4F2931310579F70F9486
:10E90000DCF10F5F1F4F0530110519F020E030E0FA
:10E91000E5CF10920A0210920B0210920C02109294
:10E920000D02109206021092070210920802109235
:10E930000902109202021092030210920402109235
:10E9400005028FEE90EE60E00F94F5F180E191EE1C
:10E9500060E00F94C2F18091C00087FFFCCF9091DE
:10E96000C600903608F09F759032B8F09093C600BC
:10E970008091C00086FFFCCF8091C00080648093AE
:10E98000C000A0E2A093C6008091C00086FFFCCF2B
:10E990008091C00080648093C000983409F4D7C18E
:10E9A0009934B8F4923409F459C1933458F490333B
:10E9B00019F1903308F4E3C59F33A1F1903409F0C5
:10E9C000DEC5BDC0953409F470C1963409F0D7C5D1
:10E9D00098C1923509F42BC2933538F49C3409F46C
:10E9E000F5C1913509F0CBC518C2963509F445C279
:10E9F000993509F0C4C567C483E792EE62E00F94CD
:10EA0000F5F110920602109207021092080210927D
:10EA1000090210920A0210920B0210920C0210923C
:10EA20000D0213C18FE792EE62E00F94F5F18FEEC5
:10EA300090EE60E00F94F5F181E291EE60E00F94CA
:10EA4000C2F187EB91EE60E00F94F5F180E391EE77
:10EA500060E00F94C2F184EE90EE60E00F94F5F167
:10EA60008FE391EE60E00F94C2F186E090E061E008
:10EA700070E00F9434F20F94DCF18DE591EE60E0DC
:10EA80000F94C2F189EC91EE60E00F94F5F18EE401
:10EA900091EE60E00F94C2F183EC91EE60E00F9490
:10EAA000F5F18CE691EE60E00F94C2F18EE10F94E7
:10EAB0000DF288E90F940DF281E00F940DF20F949E
:10EAC000DCF18BE791EE60E00F94C2F119E0E0E039
:10EAD000F0E010935700E4918E2F0F940DF20F94F5
:10EAE000DCF18AE891EE60E00F94C2F1E3E0F0E03F
:10EAF00010935700E4918E2F0F940DF20F94DCF1D8
:10EB000089E991EE60E00F94C2F1E2E0F0E0109349
:10EB10005700E4918E2F0F940DF20F94DCF188EAE8
:10EB200091EE60E00F94C2F1E1E0F0E01093570045
:10EB30001491812F0F940DF20F94DCF107CF8BE825
:10EB400092EE62E00F94F5F18BE492EE60E00F94A8
:10EB5000F5F10F94DCF100E010E019C0C8016F2D51
:10EB60000F947FFEFF2031F489E492EE60E00F9471
:10EB7000C2F10BC0F092C6008091C00086FFFCCFAE
:10EB80008091C00080648093C0000F5F1F4FC80158
:10EB900081519F41A0E0B0E0ABBFFC01F790BAE229
:10EBA000FB1621F0E2E000301E07C1F60F94DCF105
:10EBB0000F94DCF187E592EE60E00F94F5F10F948D
:10EBC000DCF1CC24DD2400E010E01EC0C8010F946D
:10EBD00077FEF82E882331F489E492EE60E00F94FA
:10EBE000C2F10BC08093C6008091C00086FFFCCFAD
:10EBF0008091C00080648093C000FE1419F00894D6
:10EC0000C11CD11C0F5F1F4FC80181519F41A0E063
:10EC1000B0E0ABBFFC01E790FAE2EF1621F022E092
:10EC20000030120799F60F94DCF10F94DCF182E6C4
:10EC300092EE60E00F94C2F1C60161E070E00F94C3
:10EC400034F20F94DCF10F94DCF110920202109276
:10EC50000302109204021092050278CE89E992EE26
:10EC600062E00F94F5F1279A2F9A16C02F9880E052
:10EC700090E0E0EDF7E03197F1F7019684369105E9
:10EC8000C1F72F9A80E090E0E0EDF7E03197F1F7DF
:10EC9000019684369105C1F78091C00087FFE6CFC9
:10ECA0008091C00087FFFCCF64C485EA92EE62E0E9
:10ECB0000F94F5F140910202509103026091040219
:10ECC0007091050281E020E10F9491F2809102029F
:10ECD00090910302A0910402B091050280509F4FD1
:10ECE000AF4FBF4F8093020290930302A0930402A0
:10ECF000B093050280509041A040B04008F426CE69
:10ED0000A4CF83EB92EE62E00F94F5F140910602FE
:10ED100050910702609108027091090280E020E1A1
:10ED20000F9491F28091060290910702A09108023F
:10ED3000B091090280509F4FAF4FBF4F80930602A2
:10ED400090930702A0930802B0930902FFCD80ECD4
:10ED500092EE62E00F94F5F183E792EE60E00F949B
:10ED6000F5F18FE792EE60E00F94F5F18BE892EE0B
:10ED700060E00F94F5F189E992EE60E00F94F5F10F
:10ED800085EA92EE60E00F94F5F183EB92EE60E09D
:10ED90000F94F5F180EC92EE60E00F94F5F187ECC2
:10EDA00092EE60E00F94F5F188ED92EE60E00F9442
:10EDB000F5F18FED92EE60E00F94F5F18AEE92EEB0
:10EDC00060E00F94F5F183E093EEBDCD87EC92EE19
:10EDD00062E00F94F5F181E40F947BF282E40F94EA
:10EDE0007BF283E40F947BF284E40F947BF285E45E
:10EDF0000F947BF286E40F947BF287E40F947BF20E
:10EE000088E40F947BF28AE40F947BF28BE40F94F6
:10EE10007BF28CE40F947BF299CD88ED92EE62E068
:10EE20000F94F5F1772473948824992409C48FED05
:10EE300092EE62E00F94F5F140910A0250910B02BC
:10EE400060910C0270910D0282E020E10F9491F22A
:10EE500080910A0290910B02A0910C02B0910D02D8
:10EE600080509F4FAF4FBF4F80930A0290930B0289
:10EE7000A0930C02B0930D0269CD8AEE92EE62E08F
:10EE80000F94F5F184EE90EE60E00F94F5F18FECC5
:10EE900091EE60E00F94F5F1662477244301CC5D98
:10EEA000DE4F19821882C452D140D401C301B695F5
:10EEB000A79597958795CA5DDE4F88839983AA8326
:10EEC000BB83C652D140CC5DDE4FA881B981C4520C
:10EED000D1401196CC5DDE4FB983A883C452D14096
:10EEE000CD0162E070E00F9434F2B0E2B093C6005E
:10EEF0008091C00086FFFCCF8091C0008064809329
:10EF0000C000EDE2E093C6008091C00086FFFCCF18
:10EF10008091C00080648093C000F0E2F093C6004E
:10EF20008091C00086FFFCCF8091C00080648093F8
:10EF3000C000CA5DDE4FE880F9800A811B81C6529D
:10EF4000D140BB27A12F902F8F2D0F940DF2CA5DBA
:10EF5000DE4F8881C652D1400F940DF2B0E2FB2EF5
:10EF6000F092C6008091C00086FFFCCF8091C00067
:10EF700080648093C0000DE30093C6008091C000C0
:10EF800086FFFCCF8091C00080648093C00010E2B7
:10EF90001093C6008091C00086FFFCCF8091C00016
:10EFA00080648093C0008BBEF3012791C65DDE4F65
:10EFB0002883CA52D140A22EBB24CC24DD2408943D
:10EFC000611C711C811C911C8BBEF3018791282E42
:10EFD0003324442455240894611C711C811C911C09
:10EFE0008BBEF3013791C55DDE4F3883CB52D140E4
:10EFF0000894611C711C811C911C8BBEF30147910C
:10F00000C45DDE4F4883CC52D140ADEFEA2EAFEF66
:10F01000FA2EAFEF0A2FAFEF1A2F6E0C7F1C801E57
:10F02000911E142D032DF22CEE24EA0CFB1C0C1D5A
:10F030001D1D0F940DF220E22093C6008091C000A8
:10F0400086FFFCCF8091C00080648093C000C65DC5
:10F05000DE4F8881CA52D1400F940DF230E23093D6
:10F06000C6008091C00086FFFCCF8091C000806404
:10F070008093C000C45DDE4F8881CC52D1400F9494
:10F080000DF240E24093C6008091C00086FFFCCFA5
:10F090008091C00080648093C000C55DDE4F888190
:10F0A000CB52D1400F940DF250E25093C6008091A4
:10F0B000C00086FFFCCF8091C00080648093C000B8
:10F0C0008FEFE8168FEFF80680E0080780E018075A
:10F0D00031F484E092EE60E00F94C2F1DFC0D80119
:10F0E000C7018070907CA070B0708050904CA040A0
:10F0F000B040D1F52FEF3FE340E050E0E222F322B1
:10F1000004231523CA5DDE4FA880B980CA80DB8046
:10F11000C652D140AE0CBF1CC01ED11EAA0CBB1CD7
:10F12000CC1CDD1C8EE092EE60E00F94C2F1BB2798
:10F13000A12F902F8F2D0F940DF28E2D0F940DF285
:10F1400030E23093C6008091C00086FFFCCF8091F2
:10F15000C00080648093C0004EE34093C60080915D
:10F16000C00086FFFCCF87C08EE09EEFA0E0B0E03D
:10F17000E822F9220A231B239CE0E91694E9F90608
:10F1800090E0090790E0190709F088C0C45DDE4FE0
:10F19000A881CC52D140EA2EFF2400E010E0102FCD
:10F1A0000F2DFE2CEE24C55DDE4FB881CB52D14031
:10F1B000EB0EF11C011D111DD601C501817090706F
:10F1C000A070B070DC0199278827E80EF91E0A1F8D
:10F1D0001B1F20EF30E040E050E0A222B322C42207
:10F1E000D52241E1AA0CBB1CCC1CDD1C4A95D1F7F1
:10F1F000EA0CFB1C0C1D1D1D81E090E0A0E0B0E0BE
:10F20000282239224A225B2235E1220C331C441C7D
:10F21000551C3A95D1F7E20CF31C041D151D57013E
:10F220006801AA0CBB1CCC1CDD1C85E192EE60E0E1
:10F230000F94C2F1C801AA27BB270F940DF2BB2778
:10F24000A12F902F8F2D0F940DF28E2D0F940DF274
:10F2500090E29093C6008091C00086FFFCCF809121
:10F26000C00080648093C000AEE3A093C60080918C
:10F27000C00086FFFCCF8091C00080648093C000F6
:10F28000C601AA27BB270F940DF2BB27AD2D9C2DDD
:10F290008B2D0F940DF28A2D0F940DF20F94DCF14B
:10F2A000CC5DDE4FE881F981C452D140F99709F471
:10F2B0004DCBF4E0EF2EF12C012D112D6E0C7F1CA7
:10F2C000801E911EF2CD83E093EE62E00F94F5F183
:10F2D0008AE192EE60E00F94C2F18091C00087FF56
:10F2E000FCCF1091C6001F751093C6008091C0001E
:10F2F00086FFFCCF8091C00080648093C0000F9493
:10F30000DCF1812F81548A3108F036C1163409F4BA
:10F3100095C0173490F4133409F44EC0143430F40B
:10F320001134F1F0123409F01DC130C0143409F465
:10F3300059C0153409F016C16BC01A3409F4C4C0A1
:10F340001B3438F4173409F48FC0183409F00AC19B
:10F35000A1C01B3409F4D2C01C3409F003C1E8C0B9
:10F360008FEF81B90DC082B1809582B980E090E0C5
:10F37000E0EDF7E03197F1F70196883C9105C1F790
:10F380008091C00087FFEFCF12B8EFC08FEF84B934
:10F390000DC085B1809585B980E090E0E0EDF7E0A3
:10F3A0003197F1F70196883C9105C1F78091C00033
:10F3B00087FFEFCF15B8D9C08FEF87B90DC088B1DF
:10F3C000809588B980E090E0E0EDF7E03197F1F7C3
:10F3D0000196883C9105C1F78091C00087FFEFCF6F
:10F3E00018B8C3C08FEF8AB90DC08BB180958BB9A7
:10F3F00080E090E0E0EDF7E03197F1F70196883C8E
:10F400009105C1F78091C00087FFEFCF1BB8ADC059
:10F410008FEF8DB90DC08EB180958EB980E090E0F0
:10F42000E0EDF7E03197F1F70196883C9105C1F7DF
:10F430008091C00087FFEFCF1EB897C08FEF80BBD1
:10F440000DC081B3809581BB80E090E0E0EDF7E0F6
:10F450003197F1F70196883C9105C1F78091C00082
:10F4600087FFEFCF11BA81C08FEF83BB0DC084B38C
:10F47000809584BB80E090E0E0EDF7E03197F1F714
:10F480000196883C9105C1F78091C00087FFEFCFBE
:10F4900014BA6BC08FEF809301010FC080910201FD
:10F4A00080958093020180E090E0E0EDF7E03197F5
:10F4B000F1F70196883C9105C1F78091C00087FF64
:10F4C000EDCF1092020151C08FEF809304010FC065
:10F4D0008091050180958093050180E090E0E0ED4A
:10F4E000F7E03197F1F70196883C9105C1F78091DB
:10F4F000C00087FFEDCF1092050137C08FEF8093DA
:10F5000007010FC08091080180958093080180E079
:10F5100090E0E0EDF7E03197F1F70196883C910536
:10F52000C1F78091C00087FFEDCF109208011DC088
:10F530008FEF80930A010FC080910B01809580931B
:10F540000B0180E090E0E0EDF7E03197F1F70196F4
:10F55000883C9105C1F78091C00087FFEDCF1092E4
:10F560000B0103C085E292EEEEC98091C00087FFD7
:10F57000FCCF8091C600EAC988E392EEE4C98CE131
:10F5800091EEE1C988249924933011F1943028F444
:10F59000913089F09230B8F408C0953061F195301F
:10F5A000F0F0963009F048C043C02B3109F042C951
:10F5B00091E06BE13FC96227C15DDE4F2883CF52E6
:10F5C000D14092E037C9B22FA0E0622793E032C960
:10F5D000822F90E0A82BB92B622794E02BC92E3004
:10F5E00009F039C3622795E0C05DDE4F19821882A9
:10F5F000C053D1401FC9E1E0F0E0EC0FFD1FC05D3A
:10F60000DE4F08811981C053D140E00FF11F2083E4
:10F610000F5F1F4FC05DDE4F19830883C053D14079
:10F6200062270A171B0709F005C9D80196E002C92D
:10F63000261709F010C303C0973009F0FBC87724E0
:10F640009981933109F412C19431C8F4963009F4C8
:10F65000D8C0973050F4923009F406C1933009F4C1
:10F660006DC0913009F059C253C0913109F477C08F
:10F67000923108F0BBC0903109F04FC2F5C098310B
:10F6800009F487C0993150F4953109F4EFC09531F0
:10F6900008F4C6C1963109F040C2C2C19A3109F4DA
:10F6A0006CC09A3108F491C09B3109F45BC09D3164
:10F6B00009F033C29D81903359F48F81882311F46E
:10F6C0009EE11CC0813011F091E018C098E916C08D
:10F6D000892F807591F0903539F4E0E0F0E089E011
:10F6E0008093570094910AC0983539F4E3E0F0E034
:10F6F00089E080935700949101C090E01A821B82A8
:10F700008D818C831D829E831F8227E030E009C299
:10F710001A8288E08B8381E48C8386E58D8382E581
:10F720008E8389E48F8383E5888780E589878FE5E9
:10F730008A8782E38B872BE030E0F3C18A818139AD
:10F7400041F0823941F0803911F48FE005C080E04A
:10F7500003C082E001C08AE01A828B8344C0772410
:10F76000739482C08D81882311F48EE12CC0813086
:10F7700011F081E028C088E926C01A82E1E0F0E0BB
:10F7800089E08093570084918B831C8224E030E0D1
:10F79000C8C18B81803589F48C81883039F4E2E0EE
:10F7A000F0E089E08093570084910DC0E0E0F0E044
:10F7B00089E080935700849106C0E3E0F0E089E09F
:10F7C0008093570084911A82DFCF8D81836C99E0FA
:10F7D000E1E0F0E0082E90935700E89507B600FCB2
:10F7E000FDCF1A821B8223E030E09BC180EC8A832C
:10F7F000CE5CDE4F188219821A821B82C253D1401E
:10F800008EC18A8190E0A0E0B0E0582F44273327D2
:10F8100022278B8190E0A0E0B0E0DC0199278827C7
:10F82000282B392B4A2B5B2B8D8190E0A0E0B0E098
:10F83000282B392B4A2B5B2B8C8190E0A0E0B0E089
:10F84000BA2FA92F982F8827282B392B4A2B5B2BCF
:10F85000220F331F441F551FC05EDE4F288339839C
:10F860004A835B83C052D1401A8259C13A81C95C34
:10F87000DE4F3883C753D140CA5CDE4F1882C6536F
:10F88000D1408B81C82EDD24CA5CDE4F488159816E
:10F89000C653D140C42AD52A933109F082C0CE5C28
:10F8A000DE4F88819981AA81BB81C253D1408050AB
:10F8B000904CA340B04030F583E0CE5CDE4FE88052
:10F8C000F9800A811B81C253D140F70100935B008C
:10F8D00080935700E89507B600FCFDCFCE5CDE4F65
:10F8E000088119812A813B81C253D14000501F4FAA
:10F8F0002F4F3F4FCE5CDE4F088319832A833B8313
:10F90000C253D140C05EDE4F488159816A817B81FC
:10F91000C052D140DE011B9631E08C9111962C91A2
:10F9200011971296C75CDE4F2883C953D140C85C3B
:10F93000DE4F1882C853D14090E0C85CDE4FE881AA
:10F94000F981C853D1408E2B9F2B0C01FA01609393
:10F950005B0030935700E89511244E5F5F4F6F4F67
:10F960007F4F0EEFE02E0FEFF02ECE0CDF1CC114F8
:10F97000D10499F685E0C05EDE4F088119812A81A5
:10F980003B81C052D140F80120935B008093570027
:10F99000E89507B600FCFDCF81E180935700E8951C
:10F9A00035C0C05EDE4F88819981AA81BB81C0527B
:10F9B000D140B695A795979587957C018601ABE0D8
:10F9C000AA2EB12CAC0EBD1E0BC0D5016D915D01F0
:10F9D000C7010F947FFE0894E11CF11C01501040F8
:10F9E0000115110591F7A60160E070E0440F551F65
:10F9F000661F771FC05EDE4FE880F9800A811B8199
:10FA0000C052D1404E0D5F1D601F711F1A82C05E33
:10FA1000DE4F488359836A837B83C052D1407FC0C5
:10FA2000FA80C55CDE4FF882CB53D140C65CDE4F16
:10FA30001882CA53D1408B81C82EDD24C65CDE4FAC
:10FA400008811981CA53D140C02AD12A1A828981DA
:10FA5000BE016D5F7F4F843121F59601C05EDE4FA0
:10FA6000E880F9800A811B81C052D1400BBFF701A9
:10FA700087919691DB018C9311969C936E5F7F4FDB
:10FA8000D801C7010296A11DB11DC05EDE4F88835B
:10FA90009983AA83BB83C052D14022503040F1F6F3
:10FAA00036C0C05EDE4F288139814A815B81C052F9
:10FAB000D1400894C108D108760100E010E0089414
:10FAC000C11CD11C0894E11CF11C011D111DE20E8A
:10FAD000F31E041F151F21BDBB27A52F942F832FB5
:10FAE00082BD2F5F3F4F4F4F5F4FF89A80B5DB01CC
:10FAF0008D93BD012E153F054007510761F7C05E8C
:10FB0000DE4F288339834A835B83C052D1409601FC
:10FB10002D5F3F4FFB01108204C080EC8A8322E0FE
:10FB200030E08BE18093C6008091C00086FFFCCF5F
:10FB30008091C00080648093C000C15DDE4FF88179
:10FB4000CF52D140F093C6008091C00086FFFCCF19
:10FB50008091C00080648093C000432F3093C60022
:10FB60008091C00086FFFCCF8091C00080648093AC
:10FB7000C000922F2093C6008091C00086FFFCCF6A
:10FB80008091C00080648093C0008EE08093C600A6
:10FB90008091C00086FFFCCF8091C000806480937C
:10FBA000C00065E1C15DDE4FE880CF52D1406E25D7
:10FBB00069276427FE01319610C090819093C6009A
:10FBC0008091C00086FFFCCF31968091C000806498
:10FBD0008093C0006927215030402115310569F715
:10FBE0006093C6008091C00086FFFCCF8091C0006A
:10FBF00080648093C00085B1805885B9772081F4F6
:10FC0000C15DDE4F0881CF52D1400F5FC15DDE4F35
:10FC10000883CF52D14090E0A0E0B0E00D941AF4F8
:10FC200027982F9880E090E020ED37E0F901319798
:10FC3000F1F7019684369105C9F700008091C00064
:10FC40008D7F8093C00081E180935700E895EE2777
:10FC5000FF270994FFCF90E00D941AF497FB092E2B
:10FC600007260AD077FD04D02ED006D000201AF443
:10FC7000709561957F4F0895F6F7909581959F4F08
:10FC80000895A1E21A2EAA1BBB1BFD010DC0AA1FDD
:10FC9000BB1FEE1FFF1FA217B307E407F50720F0F5
:10FCA000A21BB30BE40BF50B661F771F881F991F70
:10FCB0001A9469F760957095809590959B01AC01B9
:10FCC000BD01CF010895AA1BBB1B51E107C0AA1FAC
:10FCD000BB1FA617B70710F0A61BB70B881F991FED
:10FCE0005A95A9F780959095BC01CD010895F99991
:10FCF000FECF92BD81BDF89A992780B50895262F31
:10FD0000F999FECF1FBA92BD81BD20BD0FB6F89400
:0EFD1000FA9AF99A0FBE01960895F894FFCF63
:040000033000E000E9
:00000001FF
