:10000000F5C0000024C1000022C1000020C1000092
:100010001EC100001CC100001AC1000018C1000070
:1000200016C1000014C1000012C1000010C1000080
:100030000EC100000CC100000AC1000008C1000090
:1000400006C1000004C1000002C1000000C10000A0
:10005000FEC00000FCC00000FAC000000C9465095E
:10006000F6C000000C943C090C941309F0C0000089
:10007000EEC00000ECC00000EAC00000E8C00000D4
:10008000E6C00000E4C00000E2C00000E0C00000E4
:10009000DEC00000DCC00000DAC000000C94AF0934
:1000A000D6C00000D4C00000D2C00000D0C0000004
:1000B000CEC00000CCC00000CAC00000C8C0000014
:1000C000C6C00000C4C00000C2C000000C94EA0812
:1000D0000C94C108BCC000000C9498080C946F08E4
:1000E000B6C0000000000A0B02090C0D0E08070341
:1000F00004010000000000000000000000000000FB
:1001000000000000000000000000000000000000EF
:1001100012111000000000000000000000000000AC
:100120000000000000000000000000002200250088
:1001300028002B002E0031003400020100000501D0
:1001400008010B0100002100240027002A002D00D7
:100150003000330001010000040107010A01050518
:100160000505070508080808020202020A0A08082D
:10017000040404040101010101010101030303035B
:1001800003030303040707070C0C0C0C0C0C0C0CEA
:100190000202020206060606060606060B0B0B0BFB
:1001A0000B0B0B0B01021020200808102040102020
:1001B000408002010201080402010102040810202B
:1001C0004080804020100804020180040201804029
:1001D0002010080402010804020101020408102092
:1001E00040800102040810204080CE0A11241FBE66
:1001F000CFEFD1E2DEBFCDBF00E00CBF27E0A2E62B
:10020000B4E001C01D92A234B207E1F714E0A0E00F
:10021000B2E0ECE9F1E200E00BBF02C007900D9202
:10022000A236B107D9F710E0C6EFD0E000E006C073
:1002300021970109802FFE010E94F30DC53FD107D0
:1002400080E00807A9F70E94730B0C94CC10D8CE5D
:100250000F931F93CF93DF93EC019A01AB01E889D1
:10026000F98982E08083EC85FD8510820E851F85EB
:1002700060E079E08DE390E00E94D10D21503109DA
:10028000410951095695479537952795F8012083DF
:10029000188EEC89FD8986E08083EA89FB8980815C
:1002A00080618083EA89FB89808188608083EA8914
:1002B000FB89808180688083EA89FB8980818F7DCA
:1002C0008083DF91CF911F910F9108950F931F931A
:1002D000CF93DF9330E020E0EB012796DC01A20F03
:1002E000B31FFB0150E040E0EC17FD0739F00D9122
:1002F00011910113F9CF4F5F5F4FF6CF4730510592
:1003000059F02F5F3F4F2931310541F780E0DF91F0
:10031000CF911F910F91089581E0F9CF90E0FC01FA
:10032000EC55FE4F2491825A9E4FFC018491882304
:1003300099F090E0880F991FFC01EC5BFE4FA591AE
:10034000B491FC01E65DFE4F859194918FB7F894CE
:10035000EC91E22BEC938FBF0895AF92BF92CF92B6
:10036000DF92EF92FF920F931F93CF93DF93EC01F5
:100370006B017B01E40EF51E8B015801AC18BD0822
:100380000E151F05A1F12FB7F8948091FC049091F0
:10039000FD04A091FE04B091FF042FBF88879987C8
:1003A000AA87BB87E881F9810284F385E02DCE011D
:1003B000199597FF28C02FB7F8948091FC0490916D
:1003C000FD04A091FE04B091FF042FBF488559851C
:1003D0006A857B85841B950BA60BB70B4C815D81D1
:1003E0006E817F8184179507A607B707D8F2C501EC
:1003F000DF91CF911F910F91FF90EF90DF90CF9001
:10040000BF90AF900895F80181938F01B6CFAF925E
:10041000BF92CF92DF92EF92FF920F931F93CF93F1
:10042000DF936C017B018B01040F151FEB015E0153
:10043000AE18BF08C017D10759F06991D601ED91E8
:10044000FC910190F081E02DC6011995892B79F777
:10045000C501DF91CF911F910F91FF90EF90DF9039
:10046000CF90BF90AF900895FC01A089B1898C9185
:10047000A689B78982FD0FC09C91818D8F5F8F7394
:10048000228D821749F0A18DAE0FBF2FB11D5D9651
:100490009C93818F08958C910895FC01538D448D18
:1004A000252F30E0842F90E0821B930B541710F01F
:1004B000CF96089501970895FC01918D828D98172C
:1004C00061F0A28DAE0FBF2FB11D5D968C91928D04
:1004D0009F5F9F73928F90E008958FEF9FEF089535
:1004E000FC01918D828D981731F0828DE80FF11DFE
:1004F000858D90E008958FEF9FEF0895FC01918D19
:10050000228D892F90E0805C9F4F821B91098F7311
:100510009927089581E095E0F1DF21E0892B09F426
:1005200020E0822F08958EE995E0E8DF21E0892B15
:1005300009F420E0822F08958BE396E0DFDF21E0CD
:10054000892B09F420E0822F0895FC01A48DA80FC7
:10055000B92FB11DA35ABF4F2C91848D90E0019605
:100560008F739927848FA689B7892C93A089B18925
:100570008C91837080648C93938D848D981306C0C6
:100580000288F389E02D80818F7D80830895EF922A
:10059000FF920F931F93CF93DF93EC0181E0888F3D
:1005A0009B8D8C8D98131AC0E889F989808185FF0D
:1005B00015C09FB7F894EE89FF896083E889F989AF
:1005C00080818370806480839FBF81E090E0DF91B1
:1005D000CF911F910F91FF90EF900895F62E0B8D04
:1005E00010E00F5F1F4F0F731127E02E8C8D8E11BF
:1005F0000BC00FB607FCFACFE889F989808185FF27
:10060000F5CFCE01A2DFF2CFEB8DEC0FFD2FF11D68
:10061000E35AFF4FF0829FB7F8940B8FEA89FB896A
:1006200080818062D0CFCF93DF93EC01888D8823C7
:10063000B1F0AA89BB89E889F9898C9185FD03C04D
:10064000808186FD0CC00FB607FCF7CF8C9185FF2B
:10065000F2CF808185FFEDCFCE0177DFEACFDF914A
:10066000CF91089580E090E0892B21F065DF811122
:100670000E94000080E090E0892B49F080E090E04B
:10068000892B29F00E94000081110E94000080E067
:1006900090E0892B21F047DF81110E94000080E06B
:1006A00090E0892B21F036DF81110C940000089531
:1006B000282F30E0F901EC51FF4F9491F901EC55EE
:1006C000FE4F4491225A3E4FF9012491222309F40E
:1006D00035C0992311F191509231F8F4E92FF0E0EF
:1006E0008827EA58FC4F8F4F0C94F30DA703AB03F8
:1006F00088039F03A3038D03AE03B403B803BE03B3
:10070000C203C603CC03D0038D03D403DA03DE0394
:10071000809180008F7780938000E22FF0E0EE0FD1
:10072000FF1FE65DFE4FA591B4918FB7F894EC9151
:10073000611148C040954E234C938FBF089580911E
:1007400080008F7DE8CF80918000877FE4CF84B5E3
:100750008F7784BDE2CF84B58F7DFBCF8091B000D1
:100760008F778093B000D9CF8091B0008F7DF9CF83
:10077000809190008F7780939000CFCF80919000F0
:100780008F7DF9CF80919000877FF5CF8091A00079
:100790008F778093A000C1CF8091A0008F7DF9CF8B
:1007A0008091A000877FF5CF809120018F77809383
:1007B0002001B3CF809120018F7DF9CF809120015E
:1007C000877FF5CF4E2BB8CF1F93CF93DF93182F92
:1007D000EB01A4DD209731F460E0812FDF91CF9110
:1007E0001F9166CFCF3FD10511F461E0F6CFE12F25
:1007F000F0E0EC51FF4FE491E150E23108F0B3C07A
:10080000F0E08827E95FFB4F8F4F0C94F30D19043C
:100810002104260430043A04B30444044C04540470
:100820005E046804720481048B04B30495049F047D
:10083000A90484B5806884BDC7BDDF91CF911F91A5
:10084000089584B5806284BDC8BDF7CF80918000D3
:10085000806880938000D0938900C0938800EDCF9A
:1008600080918000806280938000D0938B00C09341
:100870008A00E3CF80918000886080938000D093CD
:100880008D00C0938C00D9CF8091B0008068809398
:10089000B000C093B300D1CF8091B000806280934C
:1008A000B000C093B400C9CF80919000806880935D
:1008B0009000D0939900C0939800BFCF8091900092
:1008C000806280939000D0939B00C0939A00B5CF34
:1008D00080919000886080939000D0939D00C09399
:1008E0009C00ABCF8091A00080688093A000809195
:1008F000A0008F7B8093A000D093A900C093A80094
:100900009CCF8091A00080628093A000D093AB0028
:10091000C093AA0092CF8091A00088608093A0002D
:10092000D093AD00C093AC0088CF80912001806847
:1009300080932001D0932901C09328017ECF80911C
:100940002001806280932001D0932B01C0932A0163
:1009500074CF80912001886080932001D0932D0175
:10096000C0932C016ACFC038D1050CF03ECF34CFF4
:100970003FB7F8948091F8049091F904A091FA049B
:10098000B091FB0426B5A89B05C02F3F19F0019636
:10099000A11DB11D3FBFBA2FA92F982F8827BC01D9
:1009A000CD01620F711D811D911D42E0660F771F01
:1009B000881F991F4A95D1F708958F929F92AF9201
:1009C000BF92CF92DF92EF92FF924B015C01D0DF9A
:1009D0006B017C01CDDF6C197D098E099F09683E92
:1009E000734081059105B0F321E0821A9108A108B6
:1009F000B10888EEC80E83E0D81EE11CF11C8114FA
:100A00009104A104B10431F7FF90EF90DF90CF90F3
:100A1000BF90AF909F908F9008951F93CF93DF93D7
:100A2000C1E0C0938C04882379F1D091B800109173
:100A3000BA008091BC008A7B8093BC0060E084E1B6
:100A400037DE60E085E134DE1092D104C093D30438
:100A50001092D20461E084E12BDE61E085E128DEC2
:100A60008091B9008E7F8093B9008091B9008D7F0D
:100A70008093B90088E48093B80085E48093BC003B
:100A80001093BA00D093B800DF91CF911F910895D1
:100A90002091AD04260F3327331F21323105ECF4AA
:100AA0002091D104FC0190E080E0243069F082E0E4
:100AB0000895A091AD042191AC0143575B4FA40F61
:100AC000B52FB11D2C930196861798F38091AD0434
:100AD000680F6093AD0480E0089581E00895089563
:100AE0008FEF9FEF08958FEF9FEF08958091860419
:100AF00090E09195819591090895CF92DF92EF92C0
:100B0000FF920F931F93CF93DF937C01CB018A0158
:100B100020918504222389F0EB016B01C40ED51EC0
:100B2000CC15DD0561F06991D701ED91FC91019043
:100B3000F081E02DC7011995F3CF642FA9DFC8011B
:100B4000DF91CF911F910F91FF90EF90DF90CF90A9
:100B50000895CF93DF931F92CDB7DEB769832091BD
:100B600085042223F9F020918404203258F021E0FA
:100B700030E0FC013383228390E080E00F90DF912E
:100B8000CF91089580918304E82FF0E0ED59FB4F59
:100B9000998190838F5F809383048093840481E0A4
:100BA00090E0ECCF61E0CE01019672DFF8CFCF92FA
:100BB000DF92EF92FF920F931F93CF93DF93FC018D
:100BC000C48121E020938504C093620410928304C1
:100BD000109284048385682B88ED96E0BADFD0916B
:100BE0008404D13208F08CC0C3DE6B017C0180919B
:100BF000D104811162C082E08093D10481E08093AE
:100C0000D3048FEF8093D0041092F504D093F404B2
:100C1000A3E6B4E0E4EDF4E080E0D81380C01092E5
:100C2000F6048091F604CC0FC82BC093F604809193
:100C3000D204813009F077C01092D20499DE6B01A2
:100C40007C018091F6048093BB0080918804909190
:100C50008904A0918A04B0918B04892B8A2B8B2B59
:100C600091F086DE009188041091890420918A0415
:100C700030918B046C197D098E099F09061717079F
:100C800028073907D0F18091BC0083FDDACF85ECCD
:100C90008093BC006DDE6B017C018091D1048230B9
:100CA00009F443C08091D0048F3F51F18091D0046A
:100CB000803231F18091D00423C0809188049091DA
:100CC0008904A0918A04B0918B04892B8A2B8B2BE9
:100CD00009F48DCF4DDE0091880410918904209194
:100CE0008A0430918B046C197D098E099F090617BF
:100CF00017072807390708F07ACF809187048DDE1F
:100D0000109283041092840410928504DF91CF9195
:100D10001F910F91FF90EF90DF90CF9008959D91DC
:100D200091938F5F7ACF85EEB3CF809188049091B5
:100D30008904A0918A04B0918B04892B8A2B8B2B78
:100D400009F4ABCF15DE009188041091890420913D
:100D50008A0430918B046C197D098E099F0906174E
:100D600017072807390708F098CFC7CF089590E0F4
:100D700080E0089561E087E09BDC61E08DE098CC45
:100D80000F931F93CF938C01C62F646010DF6C2FDD
:100D90006B7FC8010CDF83EC90E00197F1F7CF91F6
:100DA0001F910F910895FF920F931F93CF93DF939D
:100DB0008C01D62FC42F862F807FF82EF42A6F2D1A
:100DC000C801F5DE6F2DC801DBDF80E1D89FB001DF
:100DD0001124C62B6C2FC801EADE6C2FC801DF91ED
:100DE000CF911F910F91FF90CBCF41E0DCDF81E0ED
:100DF00090E00895FB0101900020E9F73197AF01E1
:100E0000461B570BDC01ED91FC910280F381E02D34
:100E100019940F931F93CF93DF9300D000D01F92AC
:100E20001F92CDB7DEB78B0198E0E0E0F2E0DE0183
:100E3000119601900D929A95E1F79091EC06981712
:100E400010F48FEF890F90E0880F991F21E030E0B8
:100E50002C0F3D1F820F931FFC016081606840E0F2
:100E600084EE96E0A0DF0115110571F0B80184EE63
:100E700096E028960FB6F894DEBF0FBECDBFDF9187
:100E8000CF911F910F91B6CF28960FB6F894DEBF81
:100E90000FBECDBFDF91CF911F910F9108950F939A
:100EA0001F93CF93DF938C01D0E0C0E061157105F3
:100EB00011F0A0DFEC0168E472E0C8019BDF8C0F49
:100EC0009D1FDF91CF911F910F910895CF92DF92D7
:100ED000EF92FF920F931F93CF93DF93CDB7DEB7BF
:100EE000E1970FB6F894DEBF0FBECDBF64E670E0A9
:100EF00080E090E062DD8091F2069091F306DC01E3
:100F0000ED91FC910084F185E02D19958C01181666
:100F10001906E4F0E6EFF6E080E2DF011D928A9523
:100F2000E9F764E670E080E090E047DD80E0E1967C
:100F30000FB6F894DEBF0FBECDBFDF91CF911F91EA
:100F40000F91FF90EF90DF90CF9008956BE472E0E7
:100F50008BE396E0A4DF64E670E080E090E02DDDB6
:100F60001F930F9384E592E09F938F937E01B2E2EB
:100F7000EB0EF11CFF92EF9247D6B7018BE396E0A0
:100F80008EDF64E670E080E090E017DD0F900F9058
:100F90000F900F900F900F90013211050CF43DC08F
:100FA0006DE572E08BE396E07ADF64E670E080E066
:100FB00090E003DD66E672E08BE396E01BDFA801BC
:100FC00066EF76E08091F2069091F306C6D99C0117
:100FD00050E040E019A28E010F5D1F4F8AE0C82E3D
:100FE000D12CE12CF12CCA01B901A7019601D9D568
:100FF000605DF80162938F012115310541055105AE
:1010000091F7309721F0BF018BE396E0F3DE68E4BF
:1010100072E08BE396E0EEDE89CFA80166EF76E022
:101020008091F2069091F30698D981E080CFCF931A
:101030004DDFC82F882329F066EF76E08BE396E03A
:101040002EDF8C2FCF910895CF93DF93EC0164E8CE
:1010500072E08BE396E0CEDEBE018BE396E01FDF0D
:10106000BE018091F2069091F306DF91CF9117CFE8
:1010700085ED8093BC008091880490918904A091B3
:101080008A04B0918B040796A11DB11D23E0B6958B
:10109000A795979587952A95D1F72091BC0024FDB7
:1010A00003C01092D104089540918804509189049E
:1010B00060918A0470918B04452B462B472B69F372
:1010C0000097A105B10541F025E32A95F1F700004D
:1010D0000197A109B109E1CF809187049ECC1F92AD
:1010E0000F920FB60F9211240BB60F922F933F93CE
:1010F0004F935F936F937F938F939F93AF93BF9320
:10110000EF93FF9381E095E020DAFF91EF91BF919B
:10111000AF919F918F917F916F915F914F913F918F
:101120002F910F900BBE0F900FBE0F901F90189530
:101130001F920F920FB60F9211240BB60F922F939E
:101140003F934F935F936F937F938F939F93AF934F
:10115000BF93EF93FF9381E095E086D9FF91EF91E4
:10116000BF91AF919F918F917F916F915F914F91BF
:101170003F912F910F900BBE0F900FBE0F901F90BD
:1011800018951F920F920FB60F9211240BB60F9263
:101190002F933F934F935F936F937F938F939F937F
:1011A000AF93BF93EF93FF938EE995E0CED9FF9174
:1011B000EF91BF91AF919F918F917F916F915F91CF
:1011C0004F913F912F910F900BBE0F900FBE0F903C
:1011D0001F9018951F920F920FB60F9211240BB605
:1011E0000F922F933F934F935F936F937F938F93C0
:1011F0009F93AF93BF93EF93FF938EE995E034D91C
:10120000FF91EF91BF91AF919F918F917F916F91DE
:101210005F914F913F912F910F900BBE0F900FBE9A
:101220000F901F9018951F920F920FB60F921124D6
:101230000BB60F922F933F934F935F936F937F93D0
:101240008F939F93AF93BF93EF93FF938BE396E0BE
:101250007CD9FF91EF91BF91AF919F918F917F9139
:101260006F915F914F913F912F910F900BBE0F9017
:101270000FBE0F901F9018951F920F920FB60F92EE
:1012800011240BB60F922F933F934F935F936F935D
:101290007F938F939F93AF93BF93EF93FF938BE3D2
:1012A00096E0E2D8FF91EF91BF91AF919F918F911E
:1012B0007F916F915F914F913F912F910F900BBE56
:1012C0000F900FBE0F901F9018951F920F920FB6A0
:1012D0000F9211242F933F938F939F93AF93BF93BC
:1012E0008091FC049091FD04A091FE04B091FF0454
:1012F0003091F70423E0230F2D3758F50196A11DF7
:10130000B11D2093F7048093FC049093FD04A093F7
:10131000FE04B093FF048091F8049091F904A09129
:10132000FA04B091FB040196A11DB11D8093F8044D
:101330009093F904A093FA04B093FB04BF91AF918A
:101340009F918F913F912F910F900FBE0F901F9003
:10135000189526E8230F0296A11DB11DD2CF1F922A
:101360000F920FB60F9211240BB60F922F933F934B
:101370004F935F936F937F938F939F93AF93BF939D
:10138000EF93FF938091B900887F803609F44CC0B9
:1013900008F03FC0883209F4A6C028F5803109F46E
:1013A0009AC0C8F4882309F4F6C0883009F493C0C1
:1013B000FF91EF91BF91AF919F918F917F916F912D
:1013C0005F914F913F912F910F900BBE0F900FBEE9
:1013D0000F901F901895883109F485C0803241F72D
:1013E0008093D00414C0803409F49AC040F4803350
:1013F000B9F38833E9F68093D00485ECADC080352D
:1014000009F482C0883509F493C0883489F630DE47
:10141000CFCF883909F48AC038F5883729F050F4DD
:10142000883611F0803721F683E08093D104109242
:10143000CF0455C0883809F479C0803919F0803854
:1014400009F0B6CF8091CF04803208F06FC0E091F0
:10145000CF0481E08E0F8093CF048091BB00F0E039
:10146000E155FB4F80833BC0803B39F0D0F4803A9C
:1014700009F477C0883A09F09BCF84E08093D104C7
:101480001092AE041092AD04F0E0E0E01995809166
:10149000AD0481110FC081E08093AD0410928D04E2
:1014A00009C0803C09F4A9CF883C09F4A6CF883B49
:1014B00009F07ECFE091AE0481E08E0F8093AE0400
:1014C000F0E0E357FB4F80818093BB009091AE0426
:1014D0008091AD0429C08091F6048093BB0085EC17
:1014E0008093BC0065CF9091F5048091F404981727
:1014F00058F5E091F50481E08E0F8093F504F0E05B
:10150000EC52FB4F8081E9CFE091F50481E08E0F32
:101510008093F5048091BB00F0E0EC52FB4F808398
:101520009091F5048091F4049817C8F285E8D8CF1B
:10153000E091F50481E08E0F8093F5048091BB006B
:10154000F0E0EC52FB4F80838091D30481115FCF98
:1015500081E08093D20484EA8093BC001092D1048D
:1015600027CF85EC8093BC001092D1048091CF04EA
:10157000803230F4E091CF04F0E0E155FB4F10826F
:101580006091CF0470E08FEA94E0F0E0E0E019951C
:101590001092CF040DCF1092D00439CFE1E0F5E0E6
:1015A0001382128288EE93E0A0E0B0E084839583FA
:1015B000A683B7832CE132E03183208345E351E0F9
:1015C0005587448744E351E05787468740E351E01D
:1015D000518B408B41E351E0538B428B42E351E00E
:1015E000558B448B46E351E0578B468B118E128E00
:1015F000138E148EEEE9F5E01382128284839583B4
:10160000A683B7833183208345ED50E05587448717
:1016100044ED50E05787468740ED50E0518B408BBA
:1016200041ED50E0538B428B42ED50E0558B448BA3
:1016300046ED50E0578B468B118E128E138E148E12
:10164000EBE3F6E01382128284839583A683B7834B
:101650003183208325EC30E03587248724EC30E08B
:101660003787268720EC30E0318B208B21EC30E06F
:10167000338B228B22EC30E0358B248B26EC30E050
:10168000378B268B118E128E138E148EE8EDF6E0BA
:101690001382128284839583A683B7838EE292E0BD
:1016A00091838083E4EEF6E01382128280E492E07C
:1016B0009183808387E2848380E1818782E08287CF
:1016C0001386E0EFF6E081E090E09183808314825E
:1016D00015828CE0E5E9F2E0A6E1B7E001900D9219
:1016E0008A95E1F70895CF93DF93CDB7DEB7C05A5F
:1016F000D1090FB6F894DEBF0FBECDBF789484B584
:10170000826084BD84B5816084BD85B5826085BDFD
:1017100085B5816085BD80916E00816080936E008B
:10172000109281008091810082608093810080917D
:10173000810081608093810080918000816080932E
:1017400080008091B10084608093B1008091B000EE
:1017500081608093B00080919100826080939100BD
:1017600080919100816080939100809190008160D0
:10177000809390008091A10082608093A10080916D
:10178000A10081608093A1008091A000816080937E
:10179000A00080912101826080932101809121012C
:1017A00081608093210180912001816080932001DC
:1017B00080917A00846080937A0080917A008260C0
:1017C00080937A0080917A00816080937A00809182
:1017D0007A00806880937A001092C1008DE00E94A8
:1017E0008E0140E855E260E070E08BE396E00E94F5
:1017F000280162EA72E08BE396E051DB65EB72E070
:101800008BE396E04CDB82E00E948E018DE00E942B
:101810008E0187E00E948E01ADDA70E060E082E028
:101820000E94E40364EE73E08DE00E94E40367ED40
:1018300072E08BE396E033DB64E670E080E090E0FA
:10184000BCD860EF72E08BE396E029DB6DE073E0DB
:101850008BE396E0CFDA8091F0069091F106009745
:1018600009F485C0019709F460C10091F206109156
:10187000F306D801ED91FC910680F781E02DC801B7
:101880001995D8015296ED91FC91539780818F7EE6
:1018900080835296ED91FC9153978081877F80835E
:1018A0005296ED91FC91539780818F778083529669
:1018B000ED91FC91539780818F7D80835A968C9116
:1018C0005A9759968C9364E670E080E090E075D862
:1018D00040E855E260E070E08091F2069091F306F6
:1018E0000E94280181E08093F4061092000568EFC1
:1018F00073E08BE396E0D3DA9ADB882349F161E168
:1019000074E08BE396E0CBDA60E172E086EF96E07C
:101910000E946601882351F08091000581608093C8
:10192000000567E274E08BE396E0B9DA68E072E004
:1019300086EF96E00E946601882351F080910005B1
:101940008E7F8093000564E474E08BE396E0A7DA71
:101950008091000580FF23C160E087E00E9458036A
:1019600060E08DE00E9458030E943203C5CF81E001
:1019700095E09093F3068093F20640E855E260E02C
:1019800070E00E94280160E273E090E080E041DABC
:1019900088E293E059DB8BE293E056DB84E393E04B
:1019A00053DB8DE393E050DB64EF71E080E090E087
:1019B00004D866E473E090E080E02BDA67E573E03A
:1019C0008BE396E06CDA8091F2069091F306DC01ED
:1019D000ED91FC910084F185E02D1995892B61F042
:1019E0008091F2069091F306DC01ED91FC91028466
:1019F000F385E02D1995E7CF83E693E025DB68EECC
:101A000073E080E090E00E94DD040091F206109106
:101A1000F306D801ED91FC910084F185E02DC80119
:101A20001995AC01BE016F5F7F4FC8010E94AD01E7
:101A3000BE016F5F7F4F8BE396E031DA86E1C82EFF
:101A400087E0D82E9CE6A92E93E0B92E7E01B1E85E
:101A5000EB0EF11C01E0DF92CF92BF92AF92FF92AA
:101A6000EF92D2D0B7018BE396E019DAC701ECDA36
:101A700068EF7AE280E090E00E94DD0427DA182F18
:101A800066EF76E08BE396E00ADA0F900F900F9006
:101A90000F900F900F90111111C065E773E081E076
:101AA00090E0B7D960ED77E080E090E00E94DD043F
:101AB00066E873E081E090E0ACD9CDCF67E973E0F0
:101AC00086EF96E098D0892B89F460EA73E081E094
:101AD00090E09FD90093F50668EE73E080E090E017
:101AE0000E94DD04112309F4B6CFBFCE68EA73E08B
:101AF00086EF96E080D061EB73E0892B49F067EBCD
:101B000073E086EF96E077D0892B49F460EC73E0C0
:101B100081E090E07ED91092F50610E0DDCF66EF0F
:101B200076E081E090E075D9F8CF8EE995E090936A
:101B3000F3068093F20640E056E960E070E00E9410
:101B4000280168EC73E08BE396E0A9D988E293E082
:101B50007BDA64E670E080E090E00E94DD0467DA02
:101B60008AED93E071DA64E670E080E090E00E9434
:101B7000DD045DDA83EE93E067DA64E670E080E02E
:101B800090E00E94DD0453DA8FEE93E05DDA64E6C4
:101B900070E080E090E00E94DD0449DA66CEEAD889
:101BA000E3CEA1E21A2EAA1BBB1BFD010DC0AA1F8A
:101BB000BB1FEE1FFF1FA217B307E407F50720F0B6
:101BC000A21BB30BE40BF50B661F771F881F991F31
:101BD0001A9469F760957095809590959B01AC017A
:101BE000BD01CF010895EE0FFF1F881F8BBF079027
:101BF000F691E02D1994FB01DC018D910190801983
:101C00000110D9F3990B08950F931F93CF93DF938E
:101C1000CDB7DEB72E970FB6F894DEBF0FBECDBF9F
:101C20000E891F8986E08C831A8309838FEF9FE7D3
:101C30009E838D83AE01465E5F4F688D798DCE01A8
:101C4000019611D02F813885020F131FF8011082E1
:101C50002E960FB6F894DEBF0FBECDBFDF91CF91A9
:101C60001F910F9108952F923F924F925F926F9222
:101C70007F928F929F92AF92BF92CF92DF92EF921C
:101C8000FF920F931F93CF93DF9300D000D000D02B
:101C90001F921F92CDB7DEB77C013B018A01FC0188
:101CA00017821682838181FFD0C1CE0101965C012B
:101CB000F7019381F30193FD859193FF81913F019A
:101CC000882309F449C1853239F493FD859193FF46
:101CD00081913F01853221F4B70190E0CFD1E8CF67
:101CE000912C212C312CFFE1F31538F08B3211F1BE
:101CF00090F4803209F1833229F137FC3CC020EDA9
:101D0000280F2A3050F536FE20C08AE0989E200D1C
:101D10001124922E06C08D3291F0803371F76894B1
:101D200030F8F30193FD859193FF81913F0181117B
:101D3000DACF21C0689431F8689432F8F2CF689411
:101D400033F8EFCF689434F8ECCFEAE02E9E200D04
:101D50001124222E689435F8E4CF8E3229F436FC13
:101D6000FBC0689436F8DDCF8C3619F4689437F8E8
:101D7000D8CF8836B1F2982F9F7D95549330D8F004
:101D8000833691F18337B1F1833509F05EC02801C4
:101D9000F2E04F0E511CF801C080D180692D70E037
:101DA00036FC02C06FEF7FEFC60152D14C01689440
:101DB00037F882010AC00C5F1F4FFFE3F9838824C4
:101DC0008394912C6501E89437F833FE2AC0522C95
:101DD0008114910459F5552009F46ACFB70180E2C6
:101DE00090E04CD15A94F7CFF801808189830E5F3F
:101DF0001F4FE5CF2801F2E04F0E511CF801C080C3
:101E0000D180692D70E036FC02C06FEF7FEFC60114
:101E10002AD14C018201D7CFB70180E290E02ED1C8
:101E20002A942814190409F0B8F7D1CFF60137FC29
:101E3000859137FE81916F01B70190E01FD151105C
:101E40005A94F1E08F1A9108C3CF843619F089367D
:101E500009F073C0F80137FE67C06081718182812B
:101E600093810C5F1F4FF32DFF763F2E97FF09C024
:101E700090958095709561957F4F8F4F9F4F689497
:101E800037F82AE030E0A50129D1C82ECA188C2CD9
:101E9000432C36FE0CC0E89440F8C91440F434FEDC
:101EA00005C032FC03C0F32DFE7E4F2E892C44FE6C
:101EB000A6C0FE01EC0DF11D8081803309F098C0B1
:101EC000242D297E422E842D8870582E43FCA5C0D7
:101ED00040FE9FC09C2C821418F42C0C922C981855
:101EE00044FEA1C0B70180E390E0C8D042FE08C024
:101EF00088E790E041FE02C088E590E0B701BED0DF
:101F0000C91408F49CC0CA94D12C9FEFC91AD90AED
:101F1000CA0CDB1CF60182916F01B70190E0AED0D4
:101F2000AC14BD04B9F757CF60817181072E000C46
:101F3000880B990B0E5F1F4F96CFD32CE894D4F8E3
:101F40002AE030E08537E1F1232D297FD22E8F362C
:101F5000A9F1F0F4883551F1F701868197812B962C
:101F60000FB6F894DEBF0FBECDBFDF91CF911F91AA
:101F70000F91FF90EF90DF90CF90BF90AF909F9028
:101F80008F907F906F905F904F903F902F9008952B
:101F9000803749F0883701F7D4FE02C06894D2F840
:101FA00020E130E00DC06894D4F8F6CF34FE03C0D1
:101FB000822F8660D82E20E132E002C028E030E097
:101FC000F801D7FE0EC060817181828193810C5F20
:101FD0001F4FA50183D0C82ECA183D2CE89437F8AE
:101FE00056CF6081718190E080E00E5F1F4FF1CF8E
:101FF00042FC02C0839467CF8394839464CF842D82
:10200000867809F460CFF6CFB70180E290E036D051
:1020100083948214C8F3512C63CF522C5818821425
:1020200008F45ECFF8CF842D867809F469CF8BE26F
:1020300041FE80E247FC8DE2B70190E060CFB7013E
:1020400080E390E01BD09A945BCF8FEF9FEF87CF18
:10205000FC010590615070400110D8F78095909573
:102060008E0F9F1F0895FC01615070400190011078
:10207000D8F7809590958E0F9F1F08950F931F930B
:10208000CF93DF93182F092FEB018B8181FD09C0BE
:102090001FEF0FEF812F902FDF91CF911F910F91A5
:1020A000089582FF14C02E813F818C819D81281765
:1020B00039073CF4E881F981CF010196998388833F
:1020C00010838E819F8101969F838E83E3CFE88565
:1020D000F985812F1995892BA1F3DACFFA01AA2767
:1020E000283051F1203181F1E8946F936E7F6E5F5B
:1020F0007F4F8F4F9F4FAF4FB1E03ED0B4E03CD009
:10210000670F781F891F9A1FA11D680F791F8A1FEB
:10211000911DA11D6A0F711D811D911DA11D20D052
:1021200009F468943F912AE0269F11243019305D0C
:102130003193DEF6CF010895462F4770405D4193FD
:10214000B3E00FD0C9F7F6CF462F4F70405D4A334A
:1021500018F0495D31FD4052419302D0A9F7EACF12
:10216000B4E0A6959795879577956795BA95C9F741
:1021700000976105710508959B01AC010A2E069434
:102180005795479537952795BA95C9F7620F731FED
:0C219000841F951FA01D0895F894FFCF38
:10219C0000004000140054004558485F30303000B7
:1021AC004558485F3030310000000000C70207027C
:1021BC004D0213037E025C02700200000000A905B0
:1021CC007D05B7066F0576057305700500000000E8
:1021DC00F5060702B706B6060D0A0048415320441F
:1021EC00415441002564204279746573004F564573
:1021FC0052464C4F57004F766572666C6F772C20A9
:10220C0072656164696E6720746F207365726961B1
:10221C006C3A200053656E64696E67206D6573734C
:10222C006167653A003030314441353639303231EE
:10223C00450053657269616C20696E697469616CE3
:10224C00697A656400496E697469616C697A696E52
:10225C0067204578686175737420436F6E74726F74
:10226C006C6C65722E2E00496E697469616C697AAA
:10227C00656420457868617573742070696E7300AD
:10228C00496E697469616C697A696E6720416E6424
:10229C00726F696420436F6D6D732E2E00496E69E9
:1022AC007469616C697A696E672042542E2E2E0017
:1022BC00425420496E69740041540041542B524FD2
:1022CC004C45310041542B494D4D45310041542B67
:1022DC00524553455400425420436F6E6E656374EF
:1022EC00696E672E2E2E00466C757368696E6720BA
:1022FC0042540041542B444953433F0041542B4317
:10230C004F4E2573004E4F20444154412C205741D1
:10231C004954494E470020202020202020202020F6
:10232C00202020202020004F4B2B434F4E4E4100AD
:10233C0053554343455353004F4B2B434F4E4E4540
:10234C00004552524F52004F4B2B434F4E4E4600BE
:10235C0054494D454F555400436F6E66696775720D
:10236C00696E672042542E2E2E0041542B50535729
:10237C00443F0041542B56455253494F4E3F004168
:10238C00542B414444523F00496E697469616C6935
:10239C007A6174696F6E20636F6D706C6574652EF5
:1023AC00005570646174696E6720616E64726F6948
:1023BC006420636F6D6D0045786861757374206679
:1023CC006C6167206368616E67656420746F20744C
:1023DC00727565004578686175737420666C616709
:1023EC00206368616E67656420746F2066616C732E
:0223FC0065007A
:00000001FF
