:10000000F5C0000024C1000022C1000020C1000092
:100010001EC100001CC100001AC1000018C1000070
:1000200016C1000014C1000012C1000010C1000080
:100030000EC100000CC100000AC1000008C1000090
:1000400006C1000004C1000002C1000000C10000A0
:10005000FEC00000FCC00000FAC000000C94910833
:10006000F6C000000C9468080C943F08F0C0000033
:10007000EEC00000ECC00000EAC00000E8C00000D4
:10008000E6C00000E4C00000E2C00000E0C00000E4
:10009000DEC00000DCC00000DAC000000C94DB0809
:1000A000D6C00000D4C00000D2C00000D0C0000004
:1000B000CEC00000CCC00000CAC00000C8C0000014
:1000C000C6C00000C4C00000C2C00000AFC700002E
:1000D00084C70000BCC0000057C700002CC7000048
:1000E000B6C0000000000A0B02090C0D0E08070341
:1000F00004010000000000000000000000000000FB
:1001000000000000000000000000000000000000EF
:1001100012111000000000000000000000000000AC
:100120000000000000000000000000002200250088
:1001300028002B002E0031003400020100000501D0
:1001400008010B0100002100240027002A002D00D7
:100150003000330001010000040107010A01050518
:100160000505070508080808020202020A0A08082D
:10017000040404040101010101010101030303035B
:1001800003030303040707070C0C0C0C0C0C0C0CEA
:100190000202020206060606060606060B0B0B0BFB
:1001A0000B0B0B0B01021020200808102040102020
:1001B000408002010201080402010102040810202B
:1001C0004080804020100804020180040201804029
:1001D0002010080402010804020101020408102092
:1001E00040800102040810204080FA0911241FBE3B
:1001F000CFEFD1E2DEBFCDBF00E00CBF27E0A2E130
:10020000B5E001C01D92A23FB207E1F715E0A0E002
:10021000B2E0E6E8F0E200E00BBF02C007900D920A
:10022000A231B107D9F710E0C6EFD0E000E006C078
:1002300021970109802FFE010E94680DC53FD1075B
:1002400080E00807A9F70E949F0A0C944110D8CEBD
:100250000F931F93CF93DF93EC019A01AB01E889D1
:10026000F98982E08083EC85FD8510820E851F85EB
:1002700060E079E08DE390E00E94460D2150310965
:10028000410951095695479537952795F8012083DF
:10029000188EEC89FD8986E08083EA89FB8980815C
:1002A00080618083EA89FB89808188608083EA8914
:1002B000FB89808180688083EA89FB8980818F7DCA
:1002C0008083DF91CF911F910F9108950F931F931A
:1002D000CF93DF9330E020E0EB012796DC01A20F03
:1002E000B31FFB0150E040E0EC17FD0739F00D9122
:1002F00011910113F9CF4F5F5F4FF6CF4730510592
:1003000059F02F5F3F4F2931310541F780E0DF91F0
:10031000CF911F910F91089581E0F9CF90E0FC01FA
:10032000EC55FE4F2491825A9E4FFC018491882304
:1003300099F090E0880F991FFC01EC5BFE4FA591AE
:10034000B491FC01E65DFE4F859194918FB7F894CE
:10035000EC91E22BEC938FBF0895AF92BF92CF92B6
:10036000DF92EF92FF920F931F93CF93DF93EC01F5
:100370006B017B01E40EF51E8B015801AC18BD0822
:100380000E151F05A1F12FB7F8948091AC0590913F
:10039000AD05A091AE05B091AF052FBF88879987B5
:1003A000AA87BB87E881F9810284F385E02DCE011D
:1003B000199597FF28C02FB7F8948091AC059091BC
:1003C000AD05A091AE05B091AF052FBF4885598509
:1003D0006A857B85841B950BA60BB70B4C815D81D1
:1003E0006E817F8184179507A607B707D8F2C501EC
:1003F000DF91CF911F910F91FF90EF90DF90CF9001
:10040000BF90AF900895F80181938F01B6CFAF925E
:10041000BF92CF92DF92EF92FF920F931F93CF93F1
:10042000DF936C017B018B01040F151FEB015E0153
:10043000AE18BF08C017D10759F06991D601ED91E8
:10044000FC910190F081E02DC6011995892B79F777
:10045000C501DF91CF911F910F91FF90EF90DF9039
:10046000CF90BF90AF900895FC01A089B1898C9185
:10047000A689B78982FD0FC09C91818D8F5F8F7394
:10048000228D821749F0A18DAE0FBF2FB11D5D9651
:100490009C93818F08958C910895FC01538D448D18
:1004A000252F30E0842F90E0821B930B541710F01F
:1004B000CF96089501970895FC01918D828D98172C
:1004C00061F0A28DAE0FBF2FB11D5D968C91928D04
:1004D0009F5F9F73928F90E008958FEF9FEF089535
:1004E000FC01918D828D981731F0828DE80FF11DFE
:1004F000858D90E008958FEF9FEF0895FC01918D19
:10050000228D892F90E0805C9F4F821B91098F7311
:100510009927089581EB95E0F1DF21E0892B09F41B
:1005200020E0822F08958EE496E0E8DF21E0892B19
:1005300009F420E0822F08958BEE96E0DFDF21E0C2
:10054000892B09F420E0822F0895FC01A48DA80FC7
:10055000B92FB11DA35ABF4F2C91848D90E0019605
:100560008F739927848FA689B7892C93A089B18925
:100570008C91837080648C93938D848D981306C0C6
:100580000288F389E02D80818F7D80830895EF922A
:10059000FF920F931F93CF93DF93EC0181E0888F3D
:1005A0009B8D8C8D98131AC0E889F989808185FF0D
:1005B00015C09FB7F894EE89FF896083E889F989AF
:1005C00080818370806480839FBF81E090E0DF91B1
:1005D000CF911F910F91FF90EF900895F62E0B8D04
:1005E00010E00F5F1F4F0F731127E02E8C8D8E11BF
:1005F0000BC00FB607FCFACFE889F989808185FF27
:10060000F5CFCE01A2DFF2CFEB8DEC0FFD2FF11D68
:10061000E35AFF4FF0829FB7F8940B8FEA89FB896A
:1006200080818062D0CFCF93DF93EC01888D8823C7
:10063000B1F0AA89BB89E889F9898C9185FD03C04D
:10064000808186FD0CC00FB607FCF7CF8C9185FF2B
:10065000F2CF808185FFEDCFCE0177DFEACFDF914A
:10066000CF91089580E090E0892B21F065DF811122
:100670000E94000080E090E0892B49F080E090E04B
:10068000892B29F00E94000081110E94000080E067
:1006900090E0892B21F047DF81110E94000080E06B
:1006A00090E0892B21F036DF81110C940000089531
:1006B000282F30E0F901EC51FF4F9491F901EC55EE
:1006C000FE4F4491225A3E4FF9012491222309F40E
:1006D00035C0992311F191509231F8F4E92FF0E0EF
:1006E0008827EA58FC4F8F4F0C94680DA703AB0383
:1006F00088039F03A3038D03AE03B403B803BE03B3
:10070000C203C603CC03D0038D03D403DA03DE0394
:10071000809180008F7780938000E22FF0E0EE0FD1
:10072000FF1FE65DFE4FA591B4918FB7F894EC9151
:10073000611148C040954E234C938FBF089580911E
:1007400080008F7DE8CF80918000877FE4CF84B5E3
:100750008F7784BDE2CF84B58F7DFBCF8091B000D1
:100760008F778093B000D9CF8091B0008F7DF9CF83
:10077000809190008F7780939000CFCF80919000F0
:100780008F7DF9CF80919000877FF5CF8091A00079
:100790008F778093A000C1CF8091A0008F7DF9CF8B
:1007A0008091A000877FF5CF809120018F77809383
:1007B0002001B3CF809120018F7DF9CF809120015E
:1007C000877FF5CF4E2BB8CF3FB7F8948091A8051F
:1007D0009091A905A091AA05B091AB0526B5A89B5B
:1007E00005C02F3F19F00196A11DB11D3FBFBA2FC3
:1007F000A92F982F8827BC01CD01620F711D811D83
:10080000911D42E0660F771F881F991F4A95D1F707
:1008100008958F929F92AF92BF92CF92DF92EF9204
:10082000FF924B015C01D0DF6B017C01CDDF6C19C5
:100830007D098E099F09683E734081059105B0F3DB
:1008400021E0821A9108A108B10888EEC80E83E061
:10085000D81EE11CF11C81149104A104B10431F7EC
:10086000FF90EF90DF90CF90BF90AF909F908F90D0
:1008700008951F93CF93DF93C1E0C0933C05882375
:1008800079F1D091B8001091BA008091BC008A7BB8
:100890008093BC0060E084E10BDF60E085E108DF6D
:1008A00010928105C09383051092820561E084E176
:1008B000FFDE61E085E1FCDE8091B9008E7F8093F0
:1008C000B9008091B9008D7F8093B90088E480934E
:1008D000B80085E48093BC001093BA00D093B800B0
:1008E000DF91CF911F91089520915D05260F332749
:1008F000331F21323105ECF420918105FC0190E099
:1009000080E0243069F082E00895A0915D05219196
:10091000AC01435C5A4FA40FB52FB11D2C93019627
:10092000861798F380915D05680F60935D0580E000
:10093000089581E0089508958FEF9FEF08958FEF58
:100940009FEF08958091360590E0919581959109EA
:100950000895CF92DF92EF92FF920F931F93CF9360
:10096000DF937C01CB018A0120913505222389F098
:10097000EB016B01C40ED51ECC15DD0561F069914C
:10098000D701ED91FC910190F081E02DC7011995FF
:10099000F3CF642FA9DFC801DF91CF911F910F9191
:1009A000FF90EF90DF90CF900895CF93DF931F9249
:1009B000CDB7DEB76983209135052223F9F0209168
:1009C0003405203258F021E030E0FC0133832283EB
:1009D00090E080E00F90DF91CF91089580913305F2
:1009E000E82FF0E0ED5EFA4F998190838F5F80935E
:1009F00033058093340581E090E0ECCF61E0CE01D7
:100A0000019672DFF8CFCF92DF92EF92FF920F93B1
:100A10001F93CF93DF93FC01C48121E02093350520
:100A2000C093120510923305109234058385682B0C
:100A300088E897E0BADFD0913405D13208F08CC055
:100A4000C3DE6B017C0180918105811162C082E06F
:100A50008093810581E0809383058FEF80938005EB
:100A60001092A505D093A405A3E1B5E0E4E8F5E074
:100A700080E0D81380C01092A6058091A605CC0F07
:100A8000C82BC093A60580918205813009F077C0FC
:100A90001092820599DE6B017C018091A6058093FE
:100AA000BB008091380590913905A0913A05B0912D
:100AB0003B05892B8A2B8B2B91F086DE0091380524
:100AC0001091390520913A0530913B056C197D094B
:100AD0008E099F090617170728073907D0F180915B
:100AE000BC0083FDDACF85EC8093BC006DDE6B012A
:100AF0007C0180918105823009F443C0809180059A
:100B00008F3F51F180918005803231F180918005D5
:100B100023C08091380590913905A0913A05B09194
:100B20003B05892B8A2B8B2B09F48DCF4DDE009151
:100B300038051091390520913A0530913B056C1923
:100B40007D098E099F09061717072807390708F03E
:100B50007ACF809137058DDE1092330510923405DF
:100B600010923505DF91CF911F910F91FF90EF907B
:100B7000DF90CF9008959D9191938F5F7ACF85EE0E
:100B8000B3CF8091380590913905A0913A05B09185
:100B90003B05892B8A2B8B2B09F4ABCF15DE0091FB
:100BA00038051091390520913A0530913B056C19B3
:100BB0007D098E099F09061717072807390708F0CE
:100BC00098CFC7CF089590E080E0089560E087E176
:100BD0006FDD61E08DE06CCD0F931F93CF938C019F
:100BE000C62F646010DF6C2F6B7FC8010CDF83ECB5
:100BF00090E00197F1F7CF911F910F910895FF9227
:100C00000F931F93CF93DF938C01D62FC42F862F82
:100C1000807FF82EF42A6F2DC801F5DE6F2DC801F4
:100C2000DBDF80E1D89FB0011124C62B6C2FC801F7
:100C3000EADE6C2FC801DF91CF911F910F91FF90D9
:100C4000CBCF41E0DCDF81E090E00895FB01019033
:100C50000020E9F73197AF01461B570BDC01ED91FE
:100C6000FC910280F381E02D19940F931F93CF9391
:100C7000DF9300D000D01F921F92CDB7DEB78B015B
:100C800098E0E0E0F2E0DE01119601900D929A9575
:100C9000E1F790919C07981710F48FEF890F90E07F
:100CA000880F991F21E030E02C0F3D1F820F931F0A
:100CB000FC016081606840E084E997E0A0DF0115F5
:100CC000110571F0B80184E997E028960FB6F89401
:100CD000DEBF0FBECDBFDF91CF911F910F91B6CF79
:100CE00028960FB6F894DEBF0FBECDBFDF91CF912F
:100CF0001F910F9108950F931F93CF93DF938C0152
:100D0000D0E0C0E06115710511F0A0DFEC0168E4EE
:100D100072E0C8019BDF8C0F9D1FDF91CF911F9167
:100D20000F910895CF92DF92EF92FF920F931F934E
:100D3000CF93DF93CDB7DEB7E1970FB6F894DEBF60
:100D40000FBECDBF64E670E080E090E062DD809190
:100D5000A2079091A307DC01ED91FC910084F1853D
:100D6000E02D19958C0118161906E4F0E6EAF7E073
:100D700080E2DF011D928A95E9F764E670E080E089
:100D800090E047DD80E0E1960FB6F894DEBF0FBE3D
:100D9000CDBFDF91CF911F910F91FF90EF90DF902A
:100DA000CF9008956BE472E08BEE96E0A4DF64E6EA
:100DB00070E080E090E02DDD1F930F9384E592E0DA
:100DC0009F938F937E01B2E2EB0EF11CFF92EF92A4
:100DD00090D6B7018BEE96E08EDF64E670E080E09F
:100DE00090E017DD0F900F900F900F900F900F90E5
:100DF000013211050CF43DC06DE572E08BEE96E01A
:100E00007ADF64E670E080E090E003DD66E672E0A1
:100E10008BEE96E01BDFA80166EA77E08091A207DF
:100E20009091A3079ADA9C0150E040E019A28E014C
:100E30000F5D1F4F8AE0C82ED12CE12CF12CCA0186
:100E4000B901A701960122D6605DF80162938F0176
:100E5000211531054105510591F7309721F0BF016A
:100E60008BEE96E0F3DE68E472E08BEE96E0EEDE69
:100E700089CFA80166EA77E08091A2079091A30745
:100E80006CDA81E080CFCF934DDFC82F882329F023
:100E900066EA77E08BEE96E02EDF8C2FCF910895F7
:100EA000CF93DF93EC0164E872E08BEE96E0CEDE48
:100EB000BE018BEE96E01FDFBE018091A2079091EC
:100EC000A307DF91CF9117CF85ED8093BC00809170
:100ED000380590913905A0913A05B0913B050796E8
:100EE000A11DB11D23E0B695A795979587952A95E5
:100EF000D1F72091BC0024FD03C010928105089514
:100F0000409138055091390560913A0570913B0543
:100F1000452B462B472B69F30097A105B10541F0FE
:100F200025E32A95F1F700000197A109B109E1CF66
:100F3000809137059ECC1F920F920FB60F9211240D
:100F40000BB60F922F933F934F935F936F937F93C3
:100F50008F939F93AF93BF93EF93FF9381EB95E0B4
:100F6000F4DAFF91EF91BF91AF919F918F917F91B3
:100F70006F915F914F913F912F910F900BBE0F900A
:100F80000FBE0F901F9018951F920F920FB60F92E1
:100F900011240BB60F922F933F934F935F936F9350
:100FA0007F938F939F93AF93BF93EF93FF9381EBC7
:100FB00095E05ADAFF91EF91BF91AF919F918F9198
:100FC0007F916F915F914F913F912F910F900BBE49
:100FD0000F900FBE0F901F9018951F920F920FB693
:100FE0000F9211240BB60F922F933F934F935F9361
:100FF0006F937F938F939F93AF93BF93EF93FF93E1
:101000008EE496E0A2DAFF91EF91BF91AF919F91AC
:101010008F917F916F915F914F913F912F910F90A1
:101020000BBE0F900FBE0F901F9018951F920F923E
:101030000FB60F9211240BB60F922F933F934F933D
:101040005F936F937F938F939F93AF93BF93EF9330
:10105000FF938EE496E008DAFF91EF91BF91AF9194
:101060009F918F917F916F915F914F913F912F91C0
:101070000F900BBE0F900FBE0F901F9018951F92F0
:101080000F920FB60F9211240BB60F922F933F932E
:101090004F935F936F937F938F939F93AF93BF9380
:1010A000EF93FF938BEE96E050DAFF91EF91BF91B3
:1010B000AF919F918F917F916F915F914F913F91F0
:1010C0002F910F900BBE0F900FBE0F901F90189591
:1010D0001F920F920FB60F9211240BB60F922F93FF
:1010E0003F934F935F936F937F938F939F93AF93B0
:1010F000BF93EF93FF938BEE96E0B6D9FF91EF91FC
:10110000BF91AF919F918F917F916F915F914F911F
:101110003F912F910F900BBE0F900FBE0F901F901D
:1011200018951F920F920FB60F9211242F933F9391
:101130008F939F93AF93BF938091AC059091AD0532
:10114000A091AE05B091AF053091A70523E0230F24
:101150002D3758F50196A11DB11D2093A705809349
:10116000AC059093AD05A093AE05B093AF0580910B
:10117000A8059091A905A091AA05B091AB0501968B
:10118000A11DB11D8093A8059093A905A093AA0560
:10119000B093AB05BF91AF919F918F913F912F91EC
:1011A0000F900FBE0F901F90189526E8230F029600
:1011B000A11DB11DD2CF1F920F920FB60F92112415
:1011C0000BB60F922F933F934F935F936F937F9341
:1011D0008F939F93AF93BF93EF93FF938091B90049
:1011E000887F803609F44CC008F03FC0883209F48B
:1011F000A6C028F5803109F49AC0C8F4882309F400
:10120000F6C0883009F493C0FF91EF91BF91AF9180
:101210009F918F917F916F915F914F913F912F910E
:101220000F900BBE0F900FBE0F901F901895883136
:1012300009F485C0803241F78093800514C0803462
:1012400009F49AC040F48033B9F38833E9F6809307
:10125000800585ECADC0803509F482C0883509F47D
:1012600093C0883489F630DECFCF883909F48AC03C
:1012700038F5883729F050F4883611F0803721F698
:1012800083E08093810510927F0555C0883809F46A
:1012900079C0803919F0803809F0B6CF80917F0588
:1012A000803208F06FC0E0917F0581E08E0F80935F
:1012B0007F058091BB00F0E0E15AFA4F80833BC08C
:1012C000803B39F0D0F4803A09F477C0883A09F0CD
:1012D0009BCF84E08093810510925E0510925D059E
:1012E000F0E0E0E0199580915D0581110FC081E08B
:1012F00080935D0510923D0509C0803C09F4A9CF9B
:10130000883C09F4A6CF883B09F07ECFE0915E05CA
:1013100081E08E0F80935E05F0E0E35CFA4F808100
:101320008093BB0090915E0580915D0529C08091FE
:10133000A6058093BB0085EC8093BC0065CF90919F
:10134000A5058091A405981758F5E091A50581E0C1
:101350008E0F8093A505F0E0EC57FA4F8081E9CF1E
:10136000E091A50581E08E0F8093A5058091BB00DB
:10137000F0E0EC57FA4F80839091A5058091A40589
:101380009817C8F285E8D8CFE091A50581E08E0FC7
:101390008093A5058091BB00F0E0EC57FA4F808365
:1013A0008091830581115FCF81E08093820584EA7B
:1013B0008093BC001092810527CF85EC8093BC0000
:1013C0001092810580917F05803230F4E0917F0595
:1013D000F0E0E15AFA4F108260917F0570E08FE5EE
:1013E00095E0F0E0E0E0199510927F050DCF1092A6
:1013F000800539CFE1EBF5E01382128288EE93E0AD
:10140000A0E0B0E084839583A683B7832CE132E02B
:101410003183208345E351E05587448744E351E01D
:101420005787468740E351E0518B408B41E351E0C1
:10143000538B428B42E351E0558B448B46E351E0A2
:10144000578B468B118E128E138E148EEEE4F6E0BF
:101450001382128284839583A683B783318320838A
:1014600045ED50E05587448744ED50E05787468767
:1014700040ED50E0518B408B41ED50E0538B428B5F
:1014800042ED50E0558B448B46ED50E0578B468B38
:10149000118E128E138E148EEBEEF6E013821282F2
:1014A00084839583A683B7833183208325EC30E042
:1014B0003587248724EC30E03787268720EC30E01E
:1014C000318B208B21EC30E0338B228B22EC30E00F
:1014D000358B248B26EC30E0378B268B118E128EC9
:1014E000138E148EE8E8F7E01382128284839583CA
:1014F000A683B7838EE292E091838083E4E9F7E0EC
:101500001382128280E492E09183808387E2848355
:1015100080E1818782E082871386E0EAF7E081E05C
:1015200090E091838083148215828CE0E5E9F2E0FB
:10153000A6ECB7E001900D928A95E1F70895CF935C
:10154000DF93CDB7DEB7C05AD1090FB6F894DEBF2E
:101550000FBECDBF789484B5826084BD84B58160B0
:1015600084BD85B5826085BD85B5816085BD80916E
:101570006E00816080936E001092810080918100E6
:1015800082608093810080918100816080938100DE
:10159000809180008160809380008091B1008460A0
:1015A0008093B1008091B00081608093B000809101
:1015B000910082608093910080919100816080937E
:1015C0009100809190008160809390008091A100B3
:1015D00082608093A1008091A10081608093A1002E
:1015E0008091A00081608093A000809121018260A1
:1015F000809321018091210181608093210180915C
:10160000200181608093200180917A008460809322
:101610007A0080917A00826080937A0080917A00CB
:10162000816080937A0080917A00806880937A004C
:101630001092C1008DE00E948E0140E855E260E00A
:1016400070E08BEE96E00E94280162EA72E08BEE79
:1016500096E051DB65EB72E08BEE96E04CDB89E1C6
:101660000E948E0187E10E948E01B0DA60E089E17C
:101670001FD867ED72E08BEE96E03DDB64E670E02C
:1016800080E090E0C6D860EF72E08BEE96E033DB4E
:1016900061E089E10DD864EF71E080E090E0B9D8B5
:1016A0006CEF72E08BEE96E026DB61E087E100D81C
:1016B00060E08DE00E94580364EF71E080E090E00C
:1016C000A8D86AE273E08BEE96E015DB7FDA60E47F
:1016D0007FE180E090E09DD86FE373E08BEE96E0D1
:1016E0000ADB60E089E10E94580368EC70E080E06A
:1016F00090E08FD86DE673E08BEE96E0FCDA61E067
:1017000087E10E94580360E08DE00E94580364EF77
:1017100071E080E090E07DD861E873E08BEE96E0C8
:10172000EADA61E089E10E94580360EA73E08BEE37
:1017300096E0E1DA6DEB73E08BEE96E087DA80916C
:10174000A0079091A107009709F485C0019709F4BB
:1017500061C10091A2071091A307D801ED91FC91FE
:101760000680F781E02DC8011995D8015296ED91B8
:10177000FC91539780818F7E80835296ED91FC91EE
:1017800053978081877F80835296ED91FC91539788
:1017900080818F7780835296ED91FC915397808161
:1017A0008F7D80835A968C915A9759968C9364E6D4
:1017B00070E080E090E02DD840E855E260E070E015
:1017C0008091A2079091A3070E94280181E0809355
:1017D000A4071092B00568EA74E08BEE96E08BDA0D
:1017E00052DB882349F161EC74E08BEE96E083DAFA
:1017F00060E172E086EA97E00E946601882351F07A
:101800008091B00581608093B00567ED74E08BEE48
:1018100096E071DA68E072E086EA97E00E9466017D
:10182000882351F08091B0058E7F8093B00564EFDE
:1018300074E08BEE96E05FDA8091B00580FF24C102
:1018400061E087E10E94580360E08DE00E94580348
:101850000E943203C5CF81EB95E09093A30780935C
:10186000A20740E855E260E070E00E94280160EDC8
:1018700073E090E080E0F9D988ED93E011DB8BED27
:1018800093E00EDB84EE93E00BDB8DEE93E008DB60
:1018900064EF71E080E090E00E94090466EF73E07D
:1018A00090E080E0E2D967E074E08BEE96E023DA26
:1018B0008091A2079091A307DC01ED91FC91008437
:1018C000F185E02D1995892B61F08091A207909107
:1018D000A307DC01ED91FC910284F385E02D1995BD
:1018E000E7CF83E194E0DCDA68EE73E080E090E03B
:1018F0000E9409040091A2071091A307D801ED915D
:10190000FC910084F185E02DC8011995AC01BE0160
:101910006F5F7F4FC8010E94AD01BE016F5F7F4FB7
:101920008BEE96E0E8D986ECC82E87E0D82E9CE1B5
:10193000A92E94E0B92E7E01B1E8EB0EF11C01E076
:10194000DF92CF92BF92AF92FF92EF92D2D0B701C7
:101950008BEE96E0D0D9C701A3DA68EF7AE280E097
:1019600090E00E940904DED9182F66EA77E08BEE3A
:1019700096E0C1D90F900F900F900F900F900F909D
:10198000111111C065E274E081E090E06ED960ED64
:1019900077E080E090E00E94090466E374E081E073
:1019A00090E063D9CDCF67E474E086EA97E098D001
:1019B000892B89F460E574E081E090E056D90093CA
:1019C000A50768EE73E080E090E00E94090411230F
:1019D00009F4B6CFBECE68E574E086EA97E080D021
:1019E00061E674E0892B49F067E674E086EA97E0E7
:1019F00077D0892B49F460E774E081E090E035D935
:101A00001092A50710E0DDCF66EA77E081E090E074
:101A10002CD9F8CF8EE496E09093A3078093A20789
:101A200040E056E960E070E00E94280168E774E059
:101A30008BEE96E060D988ED93E032DA64E670E0F0
:101A400080E090E00E9409041EDA8AE894E028DA37
:101A500064E670E080E090E00E94090414DA83E913
:101A600094E01EDA64E670E080E090E00E940904F1
:101A70000ADA8FE994E014DA64E670E080E090E03E
:101A80000E94090400DA65CEA1D8E2CEA1E21A2EA6
:101A9000AA1BBB1BFD010DC0AA1FBB1FEE1FFF1F12
:101AA000A217B307E407F50720F0A21BB30BE40B62
:101AB000F50B661F771F881F991F1A9469F76095A9
:101AC0007095809590959B01AC01BD01CF01089563
:101AD000EE0FFF1F881F8BBF0790F691E02D199422
:101AE000FB01DC018D91019080190110D9F3990B54
:101AF00008950F931F93CF93DF93CDB7DEB72E9743
:101B00000FB6F894DEBF0FBECDBF0E891F8986E0E9
:101B10008C831A8309838FEF9FE79E838D83AE01A9
:101B2000465E5F4F688D798DCE01019611D02F8171
:101B30003885020F131FF80110822E960FB6F89405
:101B4000DEBF0FBECDBFDF91CF911F910F910895E2
:101B50002F923F924F925F926F927F928F929F92BD
:101B6000AF92BF92CF92DF92EF92FF920F931F93AB
:101B7000CF93DF9300D000D000D01F921F92CDB73B
:101B8000DEB77C013B018A01FC011782168283814A
:101B900081FFD0C1CE0101965C01F7019381F30171
:101BA00093FD859193FF81913F01882309F449C1F9
:101BB000853239F493FD859193FF81913F01853200
:101BC00021F4B70190E0CFD1E8CF912C212C312C1A
:101BD000FFE1F31538F08B3211F190F4803209F106
:101BE000833229F137FC3CC020ED280F2A3050F514
:101BF00036FE20C08AE0989E200D1124922E06C049
:101C00008D3291F0803371F7689430F8F30193FDD1
:101C1000859193FF81913F018111DACF21C06894B2
:101C200031F8689432F8F2CF689433F8EFCF6894C3
:101C300034F8ECCFEAE02E9E200D1124222E689479
:101C400035F8E4CF8E3229F436FCFBC0689436F8C0
:101C5000DDCF8C3619F4689437F8D8CF8836B1F2D6
:101C6000982F9F7D95549330D8F0833691F1833728
:101C7000B1F1833509F05EC02801F2E04F0E511C2E
:101C8000F801C080D180692D70E036FC02C06FEF92
:101C90007FEFC60152D14C01689437F882010AC027
:101CA0000C5F1F4FFFE3F98388248394912C650117
:101CB000E89437F833FE2AC0522C8114910459F568
:101CC000552009F46ACFB70180E290E04CD15A94D4
:101CD000F7CFF801808189830E5F1F4FE5CF280180
:101CE000F2E04F0E511CF801C080D180692D70E0E8
:101CF00036FC02C06FEF7FEFC6012AD14C01820192
:101D0000D7CFB70180E290E02ED12A94281419048D
:101D100009F0B8F7D1CFF60137FC859137FE8191F4
:101D20006F01B70190E01FD151105A94F1E08F1A62
:101D30009108C3CF843619F0893609F073C0F801D1
:101D400037FE67C060817181828193810C5F1F4F74
:101D5000F32DFF763F2E97FF09C0909580957095E3
:101D600061957F4F8F4F9F4F689437F82AE030E09E
:101D7000A50129D1C82ECA188C2C432C36FE0CC0C4
:101D8000E89440F8C91440F434FE05C032FC03C0A6
:101D9000F32DFE7E4F2E892C44FEA6C0FE01EC0DD5
:101DA000F11D8081803309F098C0242D297E422EB8
:101DB000842D8870582E43FCA5C040FE9FC09C2CEB
:101DC000821418F42C0C922C981844FEA1C0B70170
:101DD00080E390E0C8D042FE08C088E790E041FE72
:101DE00002C088E590E0B701BED0C91408F49CC0D9
:101DF000CA94D12C9FEFC91AD90ACA0CDB1CF60170
:101E000082916F01B70190E0AED0AC14BD04B9F778
:101E100057CF60817181072E000C880B990B0E5FE4
:101E20001F4F96CFD32CE894D4F82AE030E08537C2
:101E3000E1F1232D297FD22E8F36A9F1F0F48835D8
:101E400051F1F701868197812B960FB6F894DEBF8A
:101E50000FBECDBFDF91CF911F910F91FF90EF90FB
:101E6000DF90CF90BF90AF909F908F907F906F90BA
:101E70005F904F903F902F900895803749F08837BA
:101E800001F7D4FE02C06894D2F820E130E00DC022
:101E90006894D4F8F6CF34FE03C0822F8660D82E23
:101EA00020E132E002C028E030E0F801D7FE0EC0A9
:101EB00060817181828193810C5F1F4FA50183D066
:101EC000C82ECA183D2CE89437F856CF608171812E
:101ED00090E080E00E5F1F4FF1CF42FC02C0839480
:101EE00067CF8394839464CF842D867809F460CF80
:101EF000F6CFB70180E290E036D083948214C8F325
:101F0000512C63CF522C5818821408F45ECFF8CFAE
:101F1000842D867809F469CF8BE241FE80E247FC8C
:101F20008DE2B70190E060CFB70180E390E01BD075
:101F30009A945BCF8FEF9FEF87CFFC0105906150A4
:101F400070400110D8F7809590958E0F9F1F0895CF
:101F5000FC016150704001900110D8F78095909578
:101F60008E0F9F1F08950F931F93CF93DF93182F0A
:101F7000092FEB018B8181FD09C01FEF0FEF812F2E
:101F8000902FDF91CF911F910F91089582FF14C080
:101F90002E813F818C819D81281739073CF4E8818F
:101FA000F981CF0101969983888310838E819F8167
:101FB00001969F838E83E3CFE885F985812F19955C
:101FC000892BA1F3DACFFA01AA27283051F1203169
:101FD00081F1E8946F936E7F6E5F7F4F8F4F9F4FBD
:101FE000AF4FB1E03ED0B4E03CD0670F781F891FFF
:101FF0009A1FA11D680F791F8A1F911DA11D6A0FCD
:10200000711D811D911DA11D20D009F468943F917F
:102010002AE0269F11243019305D3193DEF6CF017E
:102020000895462F4770405D4193B3E00FD0C9F744
:10203000F6CF462F4F70405D4A3318F0495D31FDB1
:102040004052419302D0A9F7EACFB4E0A695979504
:10205000879577956795BA95C9F7009761057105DA
:1020600008959B01AC010A2E069457954795379524
:102070002795BA95C9F7620F731F841F951FA01D7E
:062080000895F894FFCF63
:1020860000004000140054004558485F30303000CE
:102096004558485F3030310000000000C702070293
:1020A6004D0213037E025C02700200000000D5049C
:1020B600A904E3059B04A2049F049C0400000000FD
:1020C60021060702E305E2050D0A004841532044B4
:1020D600415441002564204279746573004F56458A
:1020E60052464C4F57004F766572666C6F772C20C0
:1020F60072656164696E6720746F207365726961C9
:102106006C3A200053656E64696E67206D65737363
:102116006167653A00303031444135363930323105
:10212600450053657269616C20696E697469616CFA
:10213600697A656400496E697469616C697A696E69
:1021460067204578686175737420436F6E74726F8B
:102156006C6C65722E2E00496E697469616C697AC1
:10216600656420457868617573742070696E7300C4
:10217600456E61626C65642070777200456E6162BF
:102186006C656420636F6E74726F6C2070696E2C60
:102196002063616C6962726174696F6E2073686F27
:1021A600756C642073746172740044697361626C47
:1021B600656420636F6E74726F6C2070696E004484
:1021C600697361626C6564207077722C2063616C40
:1021D6006962726174696F6E2073686F756C6420D2
:1021E600626520636F6D706C6574656400456E6131
:1021F600626C656420636F6E74726F6C2070696EBA
:1022060000456E61626C6564205057522C207661E1
:102216006C76652073686F756C64206F70656E00F0
:10222600496E697469616C697A696E6720416E648A
:10223600726F696420436F6D6D732E2E00496E694F
:102246007469616C697A696E672042542E2E2E007D
:10225600425420496E69740041540041542B524F38
:102266004C45310041542B494D4D45310041542BCD
:10227600524553455400425420436F6E6E65637455
:10228600696E672E2E2E00466C757368696E672020
:1022960042540041542B444953433F0041542B437D
:1022A6004F4E2573004E4F20444154412C20574138
:1022B6004954494E4700202020202020202020205D
:1022C600202020202020004F4B2B434F4E4E410014
:1022D60053554343455353004F4B2B434F4E4E45A7
:1022E600004552524F52004F4B2B434F4E4E460025
:1022F60054494D454F555400436F6E666967757274
:10230600696E672042542E2E2E0041542B5053578F
:10231600443F0041542B56455253494F4E3F0041CE
:10232600542B414444523F00496E697469616C699B
:102336007A6174696F6E20636F6D706C6574652E5B
:10234600005570646174696E6720616E64726F69AE
:102356006420636F6D6D00457868617573742066DF
:102366006C6167206368616E67656420746F2074B2
:10237600727565004578686175737420666C61676F
:10238600206368616E67656420746F2066616C7394
:022396006500E0
:020000023000CC
:10E000000D9489F10D94B2F10D94B2F10D94B2F129
:10E010000D94B2F10D94B2F10D94B2F10D94B2F1F0
:10E020000D94B2F10D94B2F10D94B2F10D94B2F1E0
:10E030000D94B2F10D94B2F10D94B2F10D94B2F1D0
:10E040000D94B2F10D94B2F10D94B2F10D94B2F1C0
:10E050000D94B2F10D94B2F10D94B2F10D94B2F1B0
:10E060000D94B2F10D94B2F10D94B2F10D94B2F1A0
:10E070000D94B2F10D94B2F10D94B2F10D94B2F190
:10E080000D94B2F10D94B2F10D94B2F10D94B2F180
:10E090000D94B2F10D94B2F10D94B2F10D94B2F170
:10E0A0000D94B2F10D94B2F10D94B2F10D94B2F160
:10E0B0000D94B2F10D94B2F10D94B2F10D94B2F150
:10E0C0000D94B2F10D94B2F10D94B2F10D94B2F140
:10E0D0000D94B2F10D94B2F10D94B2F10D94B2F130
:10E0E0000D94B2F141546D656761323536300041AF
:10E0F000726475696E6F206578706C6F72657220DE
:10E1000073746B3530305632206279204D4C530099
:10E11000426F6F746C6F616465723E004875683F52
:10E1200000436F6D70696C6564206F6E203D200048
:10E130004350552054797065202020203D20005FF9
:10E140005F4156525F415243485F5F3D2000415658
:10E1500052204C696243205665723D20004743437C
:10E160002056657273696F6E203D20004350552024
:10E1700049442020202020203D20004C6F7720663D
:10E18000757365202020203D20004869676820665F
:10E190007573652020203D200045787420667573D6
:10E1A00065202020203D20004C6F636B2066757336
:10E1B000652020203D20004D617220203720323024
:10E1C000313300312E362E3800342E332E350056A2
:10E1D00023202020414444522020206F7020636F70
:10E1E00064652020202020696E73747275637469E1
:10E1F0006F6E2061646472202020496E74657272B3
:10E20000757074006E6F20766563746F7200726A49
:10E210006D702020006A6D70200057686174207056
:10E220006F72743A00506F7274206E6F7420737541
:10E2300070706F72746564004D7573742062652030
:10E2400061206C6574746572002000577269747483
:10E25000696E672045450052656164696E672045B7
:10E26000450045452065727220636E743D00504F35
:10E27000525400303D5A65726F2061646472003FF1
:10E280003D43505520737461747300403D454550C3
:10E29000524F4D207465737400423D426C696E6B41
:10E2A000204C454400453D44756D70204545505215
:10E2B0004F4D00463D44756D7020464C415348001B
:10E2C000483D48656C70004C3D4C69737420492F83
:10E2D0004F20506F72747300513D51756974005234
:10E2E0003D44756D702052414D00563D73686F7707
:10E2F00020696E7465727275707420566563746FF0
:10E30000727300593D506F727420626C696E6B00BD
:10E310002A0011241FBECFEFD1E2DEBFCDBF01E046
:10E320000CBF12E0A0E0B2E0EEE1FDEF03E00BBFB6
:10E3300002C007900D92A030B107D9F712E0A0E01B
:10E34000B2E001C01D92AE30B107E1F70F9460F367
:10E350000D948DFE01E20EBF0FEF0DBF11241FBE05
:10E360000D9460F30D9400F020E030E040ED57E0B4
:10E3700005C0FA013197F1F72F5F3F4F2817390792
:10E38000C0F308959C01260F311DC901A0E0B0E043
:10E390002F5F3F4FABBFFC018791882361F08093D3
:10E3A000C6008091C00086FFFCCF8091C0008064D1
:10E3B0008093C000EACF08958DE08093C6008091DD
:10E3C000C00086FFFCCF8091C00080648093C000B5
:10E3D0008AE08093C6008091C00086FFFCCF8091C8
:10E3E000C00080648093C00008950F94C2F10F9420
:10E3F000DCF10895FC019081992359F09093C600B7
:10E400008091C00086FFFCCF8091C0008064809323
:10E41000C0003196992379F70895282F982F929567
:10E420009F70892F805D8A3308F0895F8093C600D2
:10E430008091C00086FFFCCF8091C00080648093F3
:10E44000C000822F8F70982F905D9A3308F0995FEB
:10E450009093C6008091C00086FFFCCF8091C000E1
:10E4600080648093C00008959C01FB01853691056E
:10E470001CF46330710594F0C90164E670E00F94F8
:10E480002EFE605D7F4F6093C6008091C00086FFC6
:10E49000FCCF8091C00080648093C0002B30310598
:10E4A00014F43297B4F0C90164E670E00F942EFEC4
:10E4B0006AE070E00F942EFE605D7F4F6093C600AF
:10E4C0008091C00086FFFCCF8091C0008064809363
:10E4D000C000C9016AE070E00F942EFEC0968093E0
:10E4E000C6008091C00086FFFCCF8091C000806490
:10E4F0008093C00008951F93182F8EE692EE60E07F
:10E500000F94C2F11093C6008091C00086FFFCCF2B
:10E510008091C00080648093C0000F94DCF11F9153
:10E5200008952F923F924F925F926F927F928F92B7
:10E530009F92AF92BF92CF92DF92EF92FF920F9392
:10E540001F93DF93CF93CDB7DEB762970FB6F894E2
:10E55000DEBF0FBECDBF382E622ECA01DB015C01CB
:10E560006D01772420E2222E2E010894411C511CBB
:10E570008BC081E0A81680E0B80681E0C80680E084
:10E58000D80628F0C601AA27BB270F940DF2BB2797
:10E59000AD2D9C2D8B2D0F940DF28A2D0F940DF225
:10E5A0002092C6008091C00086FFFCCF8091C00001
:10E5B00080648093C0009DE29093C6008091C0006B
:10E5C00086FFFCCF8091C00080648093C0002092C1
:10E5D000C6008091C00086FFFCCF8091C00080649F
:10E5E0008093C00019828601750188249924A1E0D6
:10E5F0003A1651F03A1620F0B2E03B1661F409C029
:10E600000BBFF701779007C0C7010F9477FE782EF4
:10E6100002C0F7017080872D0F940DF22092C60082
:10E620008091C00086FFFCCF8091C0008064809301
:10E63000C000872D8052F401EF70F0708F3520F408
:10E64000E40DF51D708204C0E40DF51D8EE280839B
:10E650000894E11CF11C011D111D0894811C911CE2
:10E6600090E18916910409F0C2CF80E190E0A0E02A
:10E67000B0E0A80EB91ECA1EDB1E198AC2010F9493
:10E68000FAF10F94DCF16A94662009F072CF629679
:10E690000FB6F894DEBF0FBECDBFCF91DF911F91B3
:10E6A0000F91FF90EF90DF90CF90BF90AF909F9031
:10E6B0008F907F906F905F904F903F902F90089534
:10E6C0002F923F924F925F926F927F928F929F9282
:10E6D000AF92BF92CF92DF92EF92FF920F931F9370
:10E6E000DF93CF93CDB7DEB7CD53D1400FB6F894BB
:10E6F000DEBF0FBECDBF01E20EBF0FEF0DBF94B75F
:10E70000F894A89514BE80916000886180936000A1
:10E7100010926000789493FF05C0E0910002F091A0
:10E7200001021995279A2F9A8091C00082608093E8
:10E73000C00080E18093C40088E18093C1000000A4
:10E74000EE24FF24870144E0A42EB12CCC24DD2448
:10E7500024C0C5010197F1F70894E11CF11C011DCB
:10E76000111D21E2E2162EE4F20620E0020720E06D
:10E77000120718F031E0C32ED12CC801B70127ECE5
:10E780003BE140E050E00F9441FE611571058105C9
:10E79000910519F485B1805885B98091C00087FD35
:10E7A00003C0C114D104A9F2A6014F5F5F4FC25E3E
:10E7B000DE4F59834883CE51D140C25EDE4F8881FF
:10E7C0009981CE51D140019711F00D9410FEC05D9A
:10E7D000DE4F19821882C053D14060E0C15DDE4F28
:10E7E0001882CF52D14088249924C35DDE4F19820C
:10E7F0001882CD52D140C05EDE4F188219821A8233
:10E800001B82C052D140CE5CDE4F188219821A8220
:10E810001B82C253D140EE24FF2487010BBFF701B6
:10E8200007911691C45CDE4F19830883CC53D14005
:10E830000D940BFEC25EDE4F28813981CE51D1404E
:10E840002130310509F52091C600C25EDE4F1982E4
:10E850001882CE51D14022C02F5F3F4F4F4F5F4FA4
:10E86000213082E138078AE7480780E0580780F0C6
:10E87000C45CDE4FE881F981CC53D140EF5FFF4F9C
:10E8800019F0EE27FF27099420E030E040E050E047
:10E890008091C00087FFE0CF2091C600C35DDE4FAE
:10E8A00048815981CD52D1404F5F5F4FC35DDE4FEC
:10E8B00059834883CD52D140213209F063C64A3092
:10E8C000510508F05FC60894811C911C53E0851621
:10E8D000910409F059C600E010E018C081E280936D
:10E8E000C6008091C00086FFFCCF8091C00080648C
:10E8F0008093C0002F5F3F4F2931310579F70F9486
:10E90000DCF10F5F1F4F0530110519F020E030E0FA
:10E91000E5CF10920A0210920B0210920C02109294
:10E920000D02109206021092070210920802109235
:10E930000902109202021092030210920402109235
:10E9400005028FEE90EE60E00F94F5F180E191EE1C
:10E9500060E00F94C2F18091C00087FFFCCF9091DE
:10E96000C600903608F09F759032B8F09093C600BC
:10E970008091C00086FFFCCF8091C00080648093AE
:10E98000C000A0E2A093C6008091C00086FFFCCF2B
:10E990008091C00080648093C000983409F4D7C18E
:10E9A0009934B8F4923409F459C1933458F490333B
:10E9B00019F1903308F4E3C59F33A1F1903409F0C5
:10E9C000DEC5BDC0953409F470C1963409F0D7C5D1
:10E9D00098C1923509F42BC2933538F49C3409F46C
:10E9E000F5C1913509F0CBC518C2963509F445C279
:10E9F000993509F0C4C567C483E792EE62E00F94CD
:10EA0000F5F110920602109207021092080210927D
:10EA1000090210920A0210920B0210920C0210923C
:10EA20000D0213C18FE792EE62E00F94F5F18FEEC5
:10EA300090EE60E00F94F5F181E291EE60E00F94CA
:10EA4000C2F187EB91EE60E00F94F5F180E391EE77
:10EA500060E00F94C2F184EE90EE60E00F94F5F167
:10EA60008FE391EE60E00F94C2F186E090E061E008
:10EA700070E00F9434F20F94DCF18DE591EE60E0DC
:10EA80000F94C2F189EC91EE60E00F94F5F18EE401
:10EA900091EE60E00F94C2F183EC91EE60E00F9490
:10EAA000F5F18CE691EE60E00F94C2F18EE10F94E7
:10EAB0000DF288E90F940DF281E00F940DF20F949E
:10EAC000DCF18BE791EE60E00F94C2F119E0E0E039
:10EAD000F0E010935700E4918E2F0F940DF20F94F5
:10EAE000DCF18AE891EE60E00F94C2F1E3E0F0E03F
:10EAF00010935700E4918E2F0F940DF20F94DCF1D8
:10EB000089E991EE60E00F94C2F1E2E0F0E0109349
:10EB10005700E4918E2F0F940DF20F94DCF188EAE8
:10EB200091EE60E00F94C2F1E1E0F0E01093570045
:10EB30001491812F0F940DF20F94DCF107CF8BE825
:10EB400092EE62E00F94F5F18BE492EE60E00F94A8
:10EB5000F5F10F94DCF100E010E019C0C8016F2D51
:10EB60000F947FFEFF2031F489E492EE60E00F9471
:10EB7000C2F10BC0F092C6008091C00086FFFCCFAE
:10EB80008091C00080648093C0000F5F1F4FC80158
:10EB900081519F41A0E0B0E0ABBFFC01F790BAE229
:10EBA000FB1621F0E2E000301E07C1F60F94DCF105
:10EBB0000F94DCF187E592EE60E00F94F5F10F948D
:10EBC000DCF1CC24DD2400E010E01EC0C8010F946D
:10EBD00077FEF82E882331F489E492EE60E00F94FA
:10EBE000C2F10BC08093C6008091C00086FFFCCFAD
:10EBF0008091C00080648093C000FE1419F00894D6
:10EC0000C11CD11C0F5F1F4FC80181519F41A0E063
:10EC1000B0E0ABBFFC01E790FAE2EF1621F022E092
:10EC20000030120799F60F94DCF10F94DCF182E6C4
:10EC300092EE60E00F94C2F1C60161E070E00F94C3
:10EC400034F20F94DCF10F94DCF110920202109276
:10EC50000302109204021092050278CE89E992EE26
:10EC600062E00F94F5F1279A2F9A16C02F9880E052
:10EC700090E0E0EDF7E03197F1F7019684369105E9
:10EC8000C1F72F9A80E090E0E0EDF7E03197F1F7DF
:10EC9000019684369105C1F78091C00087FFE6CFC9
:10ECA0008091C00087FFFCCF64C485EA92EE62E0E9
:10ECB0000F94F5F140910202509103026091040219
:10ECC0007091050281E020E10F9491F2809102029F
:10ECD00090910302A0910402B091050280509F4FD1
:10ECE000AF4FBF4F8093020290930302A0930402A0
:10ECF000B093050280509041A040B04008F426CE69
:10ED0000A4CF83EB92EE62E00F94F5F140910602FE
:10ED100050910702609108027091090280E020E1A1
:10ED20000F9491F28091060290910702A09108023F
:10ED3000B091090280509F4FAF4FBF4F80930602A2
:10ED400090930702A0930802B0930902FFCD80ECD4
:10ED500092EE62E00F94F5F183E792EE60E00F949B
:10ED6000F5F18FE792EE60E00F94F5F18BE892EE0B
:10ED700060E00F94F5F189E992EE60E00F94F5F10F
:10ED800085EA92EE60E00F94F5F183EB92EE60E09D
:10ED90000F94F5F180EC92EE60E00F94F5F187ECC2
:10EDA00092EE60E00F94F5F188ED92EE60E00F9442
:10EDB000F5F18FED92EE60E00F94F5F18AEE92EEB0
:10EDC00060E00F94F5F183E093EEBDCD87EC92EE19
:10EDD00062E00F94F5F181E40F947BF282E40F94EA
:10EDE0007BF283E40F947BF284E40F947BF285E45E
:10EDF0000F947BF286E40F947BF287E40F947BF20E
:10EE000088E40F947BF28AE40F947BF28BE40F94F6
:10EE10007BF28CE40F947BF299CD88ED92EE62E068
:10EE20000F94F5F1772473948824992409C48FED05
:10EE300092EE62E00F94F5F140910A0250910B02BC
:10EE400060910C0270910D0282E020E10F9491F22A
:10EE500080910A0290910B02A0910C02B0910D02D8
:10EE600080509F4FAF4FBF4F80930A0290930B0289
:10EE7000A0930C02B0930D0269CD8AEE92EE62E08F
:10EE80000F94F5F184EE90EE60E00F94F5F18FECC5
:10EE900091EE60E00F94F5F1662477244301CC5D98
:10EEA000DE4F19821882C452D140D401C301B695F5
:10EEB000A79597958795CA5DDE4F88839983AA8326
:10EEC000BB83C652D140CC5DDE4FA881B981C4520C
:10EED000D1401196CC5DDE4FB983A883C452D14096
:10EEE000CD0162E070E00F9434F2B0E2B093C6005E
:10EEF0008091C00086FFFCCF8091C0008064809329
:10EF0000C000EDE2E093C6008091C00086FFFCCF18
:10EF10008091C00080648093C000F0E2F093C6004E
:10EF20008091C00086FFFCCF8091C00080648093F8
:10EF3000C000CA5DDE4FE880F9800A811B81C6529D
:10EF4000D140BB27A12F902F8F2D0F940DF2CA5DBA
:10EF5000DE4F8881C652D1400F940DF2B0E2FB2EF5
:10EF6000F092C6008091C00086FFFCCF8091C00067
:10EF700080648093C0000DE30093C6008091C000C0
:10EF800086FFFCCF8091C00080648093C00010E2B7
:10EF90001093C6008091C00086FFFCCF8091C00016
:10EFA00080648093C0008BBEF3012791C65DDE4F65
:10EFB0002883CA52D140A22EBB24CC24DD2408943D
:10EFC000611C711C811C911C8BBEF3018791282E42
:10EFD0003324442455240894611C711C811C911C09
:10EFE0008BBEF3013791C55DDE4F3883CB52D140E4
:10EFF0000894611C711C811C911C8BBEF30147910C
:10F00000C45DDE4F4883CC52D140ADEFEA2EAFEF66
:10F01000FA2EAFEF0A2FAFEF1A2F6E0C7F1C801E57
:10F02000911E142D032DF22CEE24EA0CFB1C0C1D5A
:10F030001D1D0F940DF220E22093C6008091C000A8
:10F0400086FFFCCF8091C00080648093C000C65DC5
:10F05000DE4F8881CA52D1400F940DF230E23093D6
:10F06000C6008091C00086FFFCCF8091C000806404
:10F070008093C000C45DDE4F8881CC52D1400F9494
:10F080000DF240E24093C6008091C00086FFFCCFA5
:10F090008091C00080648093C000C55DDE4F888190
:10F0A000CB52D1400F940DF250E25093C6008091A4
:10F0B000C00086FFFCCF8091C00080648093C000B8
:10F0C0008FEFE8168FEFF80680E0080780E018075A
:10F0D00031F484E092EE60E00F94C2F1DFC0D80119
:10F0E000C7018070907CA070B0708050904CA040A0
:10F0F000B040D1F52FEF3FE340E050E0E222F322B1
:10F1000004231523CA5DDE4FA880B980CA80DB8046
:10F11000C652D140AE0CBF1CC01ED11EAA0CBB1CD7
:10F12000CC1CDD1C8EE092EE60E00F94C2F1BB2798
:10F13000A12F902F8F2D0F940DF28E2D0F940DF285
:10F1400030E23093C6008091C00086FFFCCF8091F2
:10F15000C00080648093C0004EE34093C60080915D
:10F16000C00086FFFCCF87C08EE09EEFA0E0B0E03D
:10F17000E822F9220A231B239CE0E91694E9F90608
:10F1800090E0090790E0190709F088C0C45DDE4FE0
:10F19000A881CC52D140EA2EFF2400E010E0102FCD
:10F1A0000F2DFE2CEE24C55DDE4FB881CB52D14031
:10F1B000EB0EF11C011D111DD601C501817090706F
:10F1C000A070B070DC0199278827E80EF91E0A1F8D
:10F1D0001B1F20EF30E040E050E0A222B322C42207
:10F1E000D52241E1AA0CBB1CCC1CDD1C4A95D1F7F1
:10F1F000EA0CFB1C0C1D1D1D81E090E0A0E0B0E0BE
:10F20000282239224A225B2235E1220C331C441C7D
:10F21000551C3A95D1F7E20CF31C041D151D57013E
:10F220006801AA0CBB1CCC1CDD1C85E192EE60E0E1
:10F230000F94C2F1C801AA27BB270F940DF2BB2778
:10F24000A12F902F8F2D0F940DF28E2D0F940DF274
:10F2500090E29093C6008091C00086FFFCCF809121
:10F26000C00080648093C000AEE3A093C60080918C
:10F27000C00086FFFCCF8091C00080648093C000F6
:10F28000C601AA27BB270F940DF2BB27AD2D9C2DDD
:10F290008B2D0F940DF28A2D0F940DF20F94DCF14B
:10F2A000CC5DDE4FE881F981C452D140F99709F471
:10F2B0004DCBF4E0EF2EF12C012D112D6E0C7F1CA7
:10F2C000801E911EF2CD83E093EE62E00F94F5F183
:10F2D0008AE192EE60E00F94C2F18091C00087FF56
:10F2E000FCCF1091C6001F751093C6008091C0001E
:10F2F00086FFFCCF8091C00080648093C0000F9493
:10F30000DCF1812F81548A3108F036C1163409F4BA
:10F3100095C0173490F4133409F44EC0143430F40B
:10F320001134F1F0123409F01DC130C0143409F465
:10F3300059C0153409F016C16BC01A3409F4C4C0A1
:10F340001B3438F4173409F48FC0183409F00AC19B
:10F35000A1C01B3409F4D2C01C3409F003C1E8C0B9
:10F360008FEF81B90DC082B1809582B980E090E0C5
:10F37000E0EDF7E03197F1F70196883C9105C1F790
:10F380008091C00087FFEFCF12B8EFC08FEF84B934
:10F390000DC085B1809585B980E090E0E0EDF7E0A3
:10F3A0003197F1F70196883C9105C1F78091C00033
:10F3B00087FFEFCF15B8D9C08FEF87B90DC088B1DF
:10F3C000809588B980E090E0E0EDF7E03197F1F7C3
:10F3D0000196883C9105C1F78091C00087FFEFCF6F
:10F3E00018B8C3C08FEF8AB90DC08BB180958BB9A7
:10F3F00080E090E0E0EDF7E03197F1F70196883C8E
:10F400009105C1F78091C00087FFEFCF1BB8ADC059
:10F410008FEF8DB90DC08EB180958EB980E090E0F0
:10F42000E0EDF7E03197F1F70196883C9105C1F7DF
:10F430008091C00087FFEFCF1EB897C08FEF80BBD1
:10F440000DC081B3809581BB80E090E0E0EDF7E0F6
:10F450003197F1F70196883C9105C1F78091C00082
:10F4600087FFEFCF11BA81C08FEF83BB0DC084B38C
:10F47000809584BB80E090E0E0EDF7E03197F1F714
:10F480000196883C9105C1F78091C00087FFEFCFBE
:10F4900014BA6BC08FEF809301010FC080910201FD
:10F4A00080958093020180E090E0E0EDF7E03197F5
:10F4B000F1F70196883C9105C1F78091C00087FF64
:10F4C000EDCF1092020151C08FEF809304010FC065
:10F4D0008091050180958093050180E090E0E0ED4A
:10F4E000F7E03197F1F70196883C9105C1F78091DB
:10F4F000C00087FFEDCF1092050137C08FEF8093DA
:10F5000007010FC08091080180958093080180E079
:10F5100090E0E0EDF7E03197F1F70196883C910536
:10F52000C1F78091C00087FFEDCF109208011DC088
:10F530008FEF80930A010FC080910B01809580931B
:10F540000B0180E090E0E0EDF7E03197F1F70196F4
:10F55000883C9105C1F78091C00087FFEDCF1092E4
:10F560000B0103C085E292EEEEC98091C00087FFD7
:10F57000FCCF8091C600EAC988E392EEE4C98CE131
:10F5800091EEE1C988249924933011F1943028F444
:10F59000913089F09230B8F408C0953061F195301F
:10F5A000F0F0963009F048C043C02B3109F042C951
:10F5B00091E06BE13FC96227C15DDE4F2883CF52E6
:10F5C000D14092E037C9B22FA0E0622793E032C960
:10F5D000822F90E0A82BB92B622794E02BC92E3004
:10F5E00009F039C3622795E0C05DDE4F19821882A9
:10F5F000C053D1401FC9E1E0F0E0EC0FFD1FC05D3A
:10F60000DE4F08811981C053D140E00FF11F2083E4
:10F610000F5F1F4FC05DDE4F19830883C053D14079
:10F6200062270A171B0709F005C9D80196E002C92D
:10F63000261709F010C303C0973009F0FBC87724E0
:10F640009981933109F412C19431C8F4963009F4C8
:10F65000D8C0973050F4923009F406C1933009F4C1
:10F660006DC0913009F059C253C0913109F477C08F
:10F67000923108F0BBC0903109F04FC2F5C098310B
:10F6800009F487C0993150F4953109F4EFC09531F0
:10F6900008F4C6C1963109F040C2C2C19A3109F4DA
:10F6A0006CC09A3108F491C09B3109F45BC09D3164
:10F6B00009F033C29D81903359F48F81882311F46E
:10F6C0009EE11CC0813011F091E018C098E916C08D
:10F6D000892F807591F0903539F4E0E0F0E089E011
:10F6E0008093570094910AC0983539F4E3E0F0E034
:10F6F00089E080935700949101C090E01A821B82A8
:10F700008D818C831D829E831F8227E030E009C299
:10F710001A8288E08B8381E48C8386E58D8382E581
:10F720008E8389E48F8383E5888780E589878FE5E9
:10F730008A8782E38B872BE030E0F3C18A818139AD
:10F7400041F0823941F0803911F48FE005C080E04A
:10F7500003C082E001C08AE01A828B8344C0772410
:10F76000739482C08D81882311F48EE12CC0813086
:10F7700011F081E028C088E926C01A82E1E0F0E0BB
:10F7800089E08093570084918B831C8224E030E0D1
:10F79000C8C18B81803589F48C81883039F4E2E0EE
:10F7A000F0E089E08093570084910DC0E0E0F0E044
:10F7B00089E080935700849106C0E3E0F0E089E09F
:10F7C0008093570084911A82DFCF8D81836C99E0FA
:10F7D000E1E0F0E0082E90935700E89507B600FCB2
:10F7E000FDCF1A821B8223E030E09BC180EC8A832C
:10F7F000CE5CDE4F188219821A821B82C253D1401E
:10F800008EC18A8190E0A0E0B0E0582F44273327D2
:10F8100022278B8190E0A0E0B0E0DC0199278827C7
:10F82000282B392B4A2B5B2B8D8190E0A0E0B0E098
:10F83000282B392B4A2B5B2B8C8190E0A0E0B0E089
:10F84000BA2FA92F982F8827282B392B4A2B5B2BCF
:10F85000220F331F441F551FC05EDE4F288339839C
:10F860004A835B83C052D1401A8259C13A81C95C34
:10F87000DE4F3883C753D140CA5CDE4F1882C6536F
:10F88000D1408B81C82EDD24CA5CDE4F488159816E
:10F89000C653D140C42AD52A933109F082C0CE5C28
:10F8A000DE4F88819981AA81BB81C253D1408050AB
:10F8B000904CA340B04030F583E0CE5CDE4FE88052
:10F8C000F9800A811B81C253D140F70100935B008C
:10F8D00080935700E89507B600FCFDCFCE5CDE4F65
:10F8E000088119812A813B81C253D14000501F4FAA
:10F8F0002F4F3F4FCE5CDE4F088319832A833B8313
:10F90000C253D140C05EDE4F488159816A817B81FC
:10F91000C052D140DE011B9631E08C9111962C91A2
:10F9200011971296C75CDE4F2883C953D140C85C3B
:10F93000DE4F1882C853D14090E0C85CDE4FE881AA
:10F94000F981C853D1408E2B9F2B0C01FA01609393
:10F950005B0030935700E89511244E5F5F4F6F4F67
:10F960007F4F0EEFE02E0FEFF02ECE0CDF1CC114F8
:10F97000D10499F685E0C05EDE4F088119812A81A5
:10F980003B81C052D140F80120935B008093570027
:10F99000E89507B600FCFDCF81E180935700E8951C
:10F9A00035C0C05EDE4F88819981AA81BB81C0527B
:10F9B000D140B695A795979587957C018601ABE0D8
:10F9C000AA2EB12CAC0EBD1E0BC0D5016D915D01F0
:10F9D000C7010F947FFE0894E11CF11C01501040F8
:10F9E0000115110591F7A60160E070E0440F551F65
:10F9F000661F771FC05EDE4FE880F9800A811B8199
:10FA0000C052D1404E0D5F1D601F711F1A82C05E33
:10FA1000DE4F488359836A837B83C052D1407FC0C5
:10FA2000FA80C55CDE4FF882CB53D140C65CDE4F16
:10FA30001882CA53D1408B81C82EDD24C65CDE4FAC
:10FA400008811981CA53D140C02AD12A1A828981DA
:10FA5000BE016D5F7F4F843121F59601C05EDE4FA0
:10FA6000E880F9800A811B81C052D1400BBFF701A9
:10FA700087919691DB018C9311969C936E5F7F4FDB
:10FA8000D801C7010296A11DB11DC05EDE4F88835B
:10FA90009983AA83BB83C052D14022503040F1F6F3
:10FAA00036C0C05EDE4F288139814A815B81C052F9
:10FAB000D1400894C108D108760100E010E0089414
:10FAC000C11CD11C0894E11CF11C011D111DE20E8A
:10FAD000F31E041F151F21BDBB27A52F942F832FB5
:10FAE00082BD2F5F3F4F4F4F5F4FF89A80B5DB01CC
:10FAF0008D93BD012E153F054007510761F7C05E8C
:10FB0000DE4F288339834A835B83C052D1409601FC
:10FB10002D5F3F4FFB01108204C080EC8A8322E0FE
:10FB200030E08BE18093C6008091C00086FFFCCF5F
:10FB30008091C00080648093C000C15DDE4FF88179
:10FB4000CF52D140F093C6008091C00086FFFCCF19
:10FB50008091C00080648093C000432F3093C60022
:10FB60008091C00086FFFCCF8091C00080648093AC
:10FB7000C000922F2093C6008091C00086FFFCCF6A
:10FB80008091C00080648093C0008EE08093C600A6
:10FB90008091C00086FFFCCF8091C000806480937C
:10FBA000C00065E1C15DDE4FE880CF52D1406E25D7
:10FBB00069276427FE01319610C090819093C6009A
:10FBC0008091C00086FFFCCF31968091C000806498
:10FBD0008093C0006927215030402115310569F715
:10FBE0006093C6008091C00086FFFCCF8091C0006A
:10FBF00080648093C00085B1805885B9772081F4F6
:10FC0000C15DDE4F0881CF52D1400F5FC15DDE4F35
:10FC10000883CF52D14090E0A0E0B0E00D941AF4F8
:10FC200027982F9880E090E020ED37E0F901319798
:10FC3000F1F7019684369105C9F700008091C00064
:10FC40008D7F8093C00081E180935700E895EE2777
:10FC5000FF270994FFCF90E00D941AF497FB092E2B
:10FC600007260AD077FD04D02ED006D000201AF443
:10FC7000709561957F4F0895F6F7909581959F4F08
:10FC80000895A1E21A2EAA1BBB1BFD010DC0AA1FDD
:10FC9000BB1FEE1FFF1FA217B307E407F50720F0F5
:10FCA000A21BB30BE40BF50B661F771F881F991F70
:10FCB0001A9469F760957095809590959B01AC01B9
:10FCC000BD01CF010895AA1BBB1B51E107C0AA1FAC
:10FCD000BB1FA617B70710F0A61BB70B881F991FED
:10FCE0005A95A9F780959095BC01CD010895F99991
:10FCF000FECF92BD81BDF89A992780B50895262F31
:10FD0000F999FECF1FBA92BD81BD20BD0FB6F89400
:0EFD1000FA9AF99A0FBE01960895F894FFCF63
:040000033000E000E9
:00000001FF
