:10000000F5C0000024C1000022C1000020C1000092
:100010001EC100001CC100001AC1000018C1000070
:1000200016C1000014C1000012C1000010C1000080
:100030000EC100000CC100000AC1000008C1000090
:1000400006C1000004C1000002C1000000C10000A0
:10005000FEC00000FCC00000FAC000000AC700009B
:10006000F6C00000D0C60000A5C60000F0C0000029
:10007000EEC00000ECC00000EAC00000E8C00000D4
:10008000E6C00000E4C00000E2C00000E0C00000E4
:10009000DEC00000DCC00000DAC0000034C7000091
:1000A000D6C00000D4C00000D2C00000D0C0000004
:1000B000CEC00000CCC00000CAC00000C8C0000014
:1000C000C6C00000C4C00000C2C00000C0C0000024
:1000D000BEC00000BCC0000037C600000CC6000057
:1000E000B6C0000000000A0B02090C0D0E08070341
:1000F00004010000000000000000000000000000FB
:1001000000000000000000000000000000000000EF
:1001100012111000000000000000000000000000AC
:100120000000000000000000000000002200250088
:1001300028002B002E0031003400020100000501D0
:1001400008010B0100002100240027002A002D00D7
:100150003000330001010000040107010A01050518
:100160000505070508080808020202020A0A08082D
:10017000040404040101010101010101030303035B
:1001800003030303040707070C0C0C0C0C0C0C0CEA
:100190000202020206060606060606060B0B0B0BFB
:1001A0000B0B0B0B01021020200808102040102020
:1001B000408002010201080402010102040810202B
:1001C0004080804020100804020180040201804029
:1001D0002010080402010804020101020408102092
:1001E00040800102040810204080A60811241FBE90
:1001F000CFEFD1E2DEBFCDBF00E00CBF25E0ACE128
:10020000B3E001C01D92A139B207E1F713E0A0E00D
:10021000B2E0E4EDF5E100E00BBF02C007900D9203
:10022000AC31B107D9F710E0C6EFD0E000E006C06E
:1002300021970109802FFE010E94E00AC53FD107E6
:1002400080E00807A9F70E9439090C94E80AD8CE83
:1002500090E0FC01EC55FE4F2491825A9E4FFC0128
:100260008491882399F090E0880F991FFC01EC5B42
:10027000FE4FA591B491FC01E65DFE4F85919491EE
:100280008FB7F894EC91E22BEC938FBF089508950B
:100290000895AF92BF92CF92DF92EF92FF920F93A9
:1002A0001F93CF93DF936C017B018B01040F151F0C
:1002B000EB015E01AE18BF08C017D10759F0699174
:1002C000D601ED91FC910190F081E02DC6011995C8
:1002D000892B79F7C501DF91CF911F910F91FF9085
:1002E000EF90DF90CF90BF90AF900895FC01538DB9
:1002F000448D252F30E0842F90E0821B930B541700
:1003000010F0CF96089501970895FC01918D828D8C
:10031000981761F0A28DAE0FBF2FB11D5D968C9125
:10032000928D9F5F9F73928F90E008958FEF9FEF64
:100330000895FC01918D828D981731F0828DE80F20
:10034000F11D858D90E008958FEF9FEF0895FC01DA
:10035000918D228D892F90E0805C9F4F821B9109A7
:100360008F739927089580EE93E0F1DF21E0892BC8
:1003700009F420E0822F08958DE794E0E8DF21E082
:10038000892B09F420E0822F0895FC01A48DA80F89
:10039000B92FB11DA35ABF4F2C91848D90E00196C7
:1003A0008F739927848FA689B7892C93A089B189E7
:1003B0008C91837080648C93938D848D981306C088
:1003C0000288F389E02D80818F7D80830895EF92EC
:1003D000FF920F931F93CF93DF93EC0181E0888FFF
:1003E0009B8D8C8D98131AC0E889F989808185FFCF
:1003F00015C09FB7F894EE89FF896083E889F98971
:1004000080818370806480839FBF81E090E0DF9172
:10041000CF911F910F91FF90EF900895F62E0B8DC5
:1004200010E00F5F1F4F0F731127E02E8C8D8E1180
:100430000BC00FB607FCFACFE889F989808185FFE8
:10044000F5CFCE01A2DFF2CFEB8DEC0FFD2FF11D2A
:10045000E35AFF4FF0829FB7F8940B8FEA89FB892C
:1004600080818062D0CFCF93DF93EC01888D882389
:10047000B1F0AA89BB89E889F9898C9185FD03C00F
:10048000808186FD0CC00FB607FCF7CF8C9185FFED
:10049000F2CF808185FFEDCFCE0177DFEACFDF910C
:1004A000CF91089580E090E0892B21F065DF8111E4
:1004B0000E94000080E090E0892B49F080E090E00D
:1004C000892B29F00E94000081110E94000080E029
:1004D00090E0892B49F080E090E0892B29F00E9480
:1004E000000081110E94000080E090E0892B21F043
:1004F0003ADF81110C9400000895282F30E0F901B3
:10050000EC51FF4F9491F901EC55FE4F4491225A62
:100510003E4FF9012491222309F435C0992311F1AA
:1005200091509231F8F4E92FF0E08827E556FD4F1D
:100530008F4F0C94E00ACC02D002AD02C402C80274
:10054000B202D302D902DD02E302E702EB02F102BA
:10055000F502B202F902FF020303809180008F7757
:1005600080938000E22FF0E0EE0FFF1FE65DFE4F6C
:10057000A591B4918FB7F894EC91611148C0409562
:100580004E234C938FBF0895809180008F7DE8CFDC
:1005900080918000877FE4CF84B58F7784BDE2CFE0
:1005A00084B58F7DFBCF8091B0008F778093B000B2
:1005B000D9CF8091B0008F7DF9CF809190008F7757
:1005C00080939000CFCF809190008F7DF9CF809164
:1005D0009000877FF5CF8091A0008F778093A00057
:1005E000C1CF8091A0008F7DF9CF8091A000877F3F
:1005F000F5CF809120018F7780932001B3CF809138
:1006000020018F7DF9CF80912001877FF5CF4E2B80
:10061000B8CF1F93CF93DF93182FEB0119DE2097EC
:1006200031F460E0812FDF91CF911F9166CFCF3FF2
:10063000D10511F461E0F6CFE12FF0E0EC51FF4F6E
:10064000E491E150E23108F0B2C0F0E08827E55DC6
:10065000FC4F8F4FB5C73D0345034A0354035E0368
:10066000D70368037003780382038C039603A50302
:10067000AF03D703B903C303CD0384B5806884BD3A
:10068000C7BDDF91CF911F91089584B5806284BD6D
:10069000C8BDF7CF80918000806880938000D093A0
:1006A0008900C0938800EDCF8091800080628093A4
:1006B0008000D0938B00C0938A00E3CF80918000AC
:1006C000886080938000D0938D00C0938C00D9CF38
:1006D0008091B00080688093B000C093B300D1CF08
:1006E0008091B00080628093B000C093B400C9CF05
:1006F00080919000806880939000D0939900C0937F
:100700009800BFCF80919000806280939000D0933A
:100710009B00C0939A00B5CF809190008860809331
:100720009000D0939D00C0939C00ABCF8091A0001F
:1007300080688093A0008091A0008F7B8093A000B0
:10074000D093A900C093A8009CCF8091A0008062A4
:100750008093A000D093AB00C093AA0092CF809169
:10076000A00088608093A000D093AD00C093AC003F
:1007700088CF80912001806880932001D093290147
:10078000C09328017ECF8091200180628093200158
:10079000D0932B01C0932A0174CF809120018860EF
:1007A00080932001D0932D01C0932C016ACFC038D3
:1007B000D1050CF03FCF35CF3FB7F8948091D303EC
:1007C0009091D403A091D503B091D60326B5A89BF0
:1007D00005C02F3F19F00196A11DB11D3FBFBA2FD3
:1007E000A92F982F8827BC01CD01620F711D811D93
:1007F000911D42E0660F771F881F991F4A95D1F718
:1008000008958F929F92AF92BF92CF92DF92EF9214
:10081000FF924B015C01D0DF6B017C01CDDF6C19D5
:100820007D098E099F09683E734081059105B0F3EB
:1008300021E0821A9108A108B10888EEC80E83E071
:10084000D81EE11CF11C81149104A104B10431F7FC
:10085000FF90EF90DF90CF90BF90AF909F908F90E0
:10086000089520918403260F3327331F2132310549
:10087000ECF42091A803FC0190E080E0243069F0C2
:1008800082E00895A09184032191AC014C595C4F02
:10089000A40FB52FB11D2C930196861798F3809164
:1008A0008403680F6093840380E0089581E00895D5
:1008B0001092A80381E08093AA031092A90361E03B
:1008C00084E11BDE61E085E118DEE9EBF0E0808188
:1008D0008E7F808380818D7F808388E48093B800C1
:1008E00085E48093BC000895CF93DF9391E09093CB
:1008F00063038823A1F0C091B800D091BA00809121
:10090000BC008A7B8093BC0060E084E1F6DD60E09F
:1009100085E1F3DDCDDFD093BA00C093B800DF915D
:10092000CF9108950895E091DE038091DD03E817EB
:1009300030F4F0E0E25CFC4F808190E008958FEFAE
:100940009FEF08959091DE038091DD032FEF3FEF3D
:10095000981748F4E92FF0E0E25CFC4F208130E08A
:100960009F5F9093DE03C90108958091DD0390910C
:10097000DE03891B990B0895CF92DF92EF92FF92CD
:100980000F931F93CF93DF937C01CB018A012091BA
:100990003D03222389F0EB016B01C40ED51ECC155B
:1009A000DD0561F06991D701ED91FC910190F08135
:1009B000E02DC7011995F3CF642F53DFC801DF91F4
:1009C000CF911F910F91FF90EF90DF90CF900895FE
:1009D000CF93DF931F92CDB7DEB7698320913D039C
:1009E0002223F9F02091DB03203258F021E030E09F
:1009F000FC013383228390E080E00F90DF91CF9160
:100A000008958091DC03E82FF0E0E35EFC4F9981CC
:100A100090838F5F8093DC038093DB0381E090E021
:100A2000ECCF61E0CE0101961CDFF8CFCF92DF92D0
:100A3000EF92FF920F931F93CF93DF93FC01C4813A
:100A400021E020933D03C0931C031092DC0310921D
:100A5000DB038385682B8AE195E0BADFD091DB0365
:100A6000D13208F08CC0A8DE6B017C018091A80314
:100A7000811162C082E08093A80381E08093AA0381
:100A80008FEF8093A7031092CC03D093CB03ADE1FB
:100A9000B3E0EBEAF3E080E0D81380C01092CD031E
:100AA0008091CD03CC0FC82BC093CD038091A903B7
:100AB000813009F077C01092A9037EDE6B017C01C2
:100AC0008091CD038093BB0080915F039091600380
:100AD000A0916103B0916203892B8A2B8B2B91F03B
:100AE0006BDE00915F0310916003209161033091F0
:100AF00062036C197D098E099F09061717072807DD
:100B00003907D0F18091BC0083FDDACF85EC80936A
:100B1000BC0052DE6B017C018091A803823009F495
:100B200043C08091A7038F3F51F18091A70380328A
:100B300031F18091A70323C080915F0390916003FE
:100B4000A0916103B0916203892B8A2B8B2B09F44E
:100B50008DCF32DE00915F0310916003209161031D
:100B6000309162036C197D098E099F0906171707DA
:100B70002807390708F07ACF80915E03B5DE10921E
:100B8000DC031092DB0310923D03DF91CF911F91A4
:100B90000F91FF90EF90DF90CF9008959D919193EA
:100BA0008F5F7ACF85EEB3CF80915F039091600322
:100BB000A0916103B0916203892B8A2B8B2B09F4DE
:100BC000ABCFFADD00915F031091600320916103C8
:100BD000309162036C197D098E099F09061717076A
:100BE0002807390708F098CFC7CF089590E080E034
:100BF0000895CF93DF93FC0101900020E9F731972E
:100C0000AF01481B590BBC018DE794E042DBEC01BE
:100C100042E050E06DE372E08DE794E03ADB8C0F48
:100C20009D1FDF91CF91089585ED8093BC00809149
:100C30005F0390916003A0916103B09162030796F6
:100C4000A11DB11D23E0B695A795979587952A9587
:100C5000D1F72091BC0024FD03C01092A803089591
:100C600040915F0350916003609161037091620352
:100C7000452B462B472B69F30097A105B10541F0A1
:100C800025E32A95F1F700000197A109B109E1CF09
:100C900080915E0329CE0F931F93CF938C01C62FB3
:100CA000C5DE6C2F6460C801C1DE6C2F6B7FC8018C
:100CB000BDDE83EC90E00197F1F7CF911F910F918A
:100CC00008950F931F93CF93DF938C01D62FC42FDA
:100CD000607F642BE0DF80E1D89FB00111246C2B92
:100CE000C801DF91CF911F910F91D5CF41E0E9DF8E
:100CF00081E090E008951F920F920FB60F92112499
:100D00000BB60F922F933F934F935F936F937F9305
:100D10008F939F93AF93BF93EF93FF9380EE93E0F6
:100D200034DBFF91EF91BF91AF919F918F917F91B4
:100D30006F915F914F913F912F910F900BBE0F904C
:100D40000FBE0F901F9018951F920F920FB60F9223
:100D500011240BB60F922F938F939F93EF93FF93D2
:100D6000E091F003F091F1038081E091F603F091BE
:100D7000F70382FD1DC090818091F9038F5F8F730F
:100D80002091FA03821741F0E091F903F0E0E0527C
:100D9000FC4F958F8093F903FF91EF919F918F9175
:100DA0002F910F900BBE0F900FBE0F901F901895B4
:100DB0008081F2CF1F920F920FB60F9211240BB6C3
:100DC0000F922F933F934F935F936F937F938F93E4
:100DD0009F93AF93BF93EF93FF938DE794E0D5DAA2
:100DE000FF91EF91BF91AF919F918F917F916F9103
:100DF0005F914F913F912F910F900BBE0F900FBEBF
:100E00000F901F9018951F920F920FB60F921124FA
:100E10000BB60F922F938F939F93EF93FF93E091D5
:100E20008D04F0918E048081E0919304F0919404FC
:100E300082FD1DC09081809196048F5F8F732091F9
:100E40009704821741F0E0919604F0E0E358FB4FDD
:100E5000958F80939604FF91EF919F918F912F91A1
:100E60000F900BBE0F900FBE0F901F9018958081B2
:100E7000F2CF1F920F920FB60F9211242F933F9330
:100E80008F939F93AF93BF938091CF039091D003A3
:100E9000A091D103B091D2033091CE0323E0230F70
:100EA0002D3758F50196A11DB11D2093CE038093D7
:100EB000CF039093D003A093D103B093D20380913A
:100EC000D3039091D403A091D503B091D60301969A
:100ED000A11DB11D8093D3039093D403A093D50398
:100EE000B093D603BF91AF919F918F913F912F9176
:100EF0000F900FBE0F901F90189526E8230F0296B3
:100F0000A11DB11DD2CF1F920F920FB60F921124C7
:100F10000BB60F922F933F934F935F936F937F93F3
:100F20008F939F93AF93BF93EF93FF938091B900FB
:100F3000887F803609F44CC008F03FC0883209F43D
:100F4000A8C028F5803109F49CC0C8F4882309F4AE
:100F5000FAC0883009F495C0FF91EF91BF91AF912D
:100F60009F918F917F916F915F914F913F912F91C1
:100F70000F900BBE0F900FBE0F901F9018958831E9
:100F800009F487C0803241F78093A70314C08034EE
:100F900009F49CC040F48033B9F38833E9F68093B8
:100FA000A70385ECAFC0803509F484C0883509F407
:100FB00095C0883489F638DECFCF883909F48CC0E3
:100FC00038F5883729F050F4883611F0803721F64B
:100FD00083E08093A8031092A60357C0883809F4D1
:100FE0007BC0803919F0803809F0B6CF8091A60314
:100FF000803208F071C0E091A60381E08E0F8093EB
:10100000A6038091BB00F0E0EA57FC4F80833DC00F
:10101000803B39F0E0F4803A09F479C0883A09F06D
:101020009BCF84E08093A8031092850310928403E1
:10103000E091D903F091DA0319958091840381112D
:101040000FC081E0809384031092640309C0803C48
:1010500009F4A7CF883C09F4A4CF883B09F07CCFE2
:10106000E091850381E08E0F80938503F0E0EC59D9
:10107000FC4F80818093BB00909185038091840315
:1010800029C08091CD038093BB0085EC8093BC0088
:1010900063CF9091CC038091CB03981758F5E091E2
:1010A000CC0381E08E0F8093CC03F0E0E555FC4F3C
:1010B0008081E9CFE091CC0381E08E0F8093CC0357
:1010C0008091BB00F0E0E555FC4F80839091CC030C
:1010D0008091CB039817C8F285E8D8CFE091CC0374
:1010E00081E08E0F8093CC038091BB00F0E0E5554A
:1010F000FC4F80838091AA0381115DCF81E08093B2
:10110000A90384EA8093BC001092A80325CF85EC44
:101110008093BC001092A8038091A603803230F423
:10112000E091A603F0E0EA57FC4F10826091A6031D
:1011300070E0E091D703F091D80386E893E0199529
:101140001092A60309CF1092A70335CFCF93DF9358
:10115000E0EEF3E01382128288EE93E0A0E0B0E0CC
:1011600084839583A683B78321E132E03183208392
:1011700045E351E05587448744E351E0578746876C
:1011800040E351E0518B408B41E351E0538B428B64
:1011900042E351E0558B448B46E351E0578B468B3D
:1011A000118E128E138E148EEDE7F4E013821282EC
:1011B00084839583A683B7833183208325EC30E035
:1011C0003587248724EC30E03787268720EC30E011
:1011D000318B208B21EC30E0338B228B22EC30E002
:1011E000358B248B26EC30E0378B268B118E128EBC
:1011F000138E148EEAE1F5E01382128284839583C4
:10120000A683B78383E292E091838083E6E2F5E0F0
:101210001382128285E392E09183808387E2848344
:1012200080E1818782E082871386C2E3D5E018825D
:1012300019828CE0E0E0F2E0A4E4B5E001900D92C8
:101240008A95E1F718AA8FEF8EABEDE7F5E087E01E
:10125000DF011D928A95E9F71092840510928D05A1
:1012600010928E0510928F0510929005DF91CF910C
:101270000895789484B5826084BD84B5816084BD0E
:1012800085B5826085BD85B5816085BD80916E0024
:10129000816080936E001092810080918100826055
:1012A0008093810080918100816080938100809192
:1012B00080008160809380008091B1008460809381
:1012C000B1008091B00081608093B0008091910066
:1012D0008260809391008091910081608093910061
:1012E000809190008160809390008091A100826045
:1012F0008093A1008091A10081608093A1008091E2
:10130000A00081608093A000809121018260809381
:101310002101809121018160809321018091200130
:1013200081608093200180917A00846080937A00AC
:1013300080917A00826080937A0080917A00816047
:1013400080937A0080917A00806880937A0010926E
:10135000C100E0918D04F0918E0482E08083E091E1
:101360008904F0918A041082E0918B04F0918C043E
:101370008FEC808310929504E0919104F091920497
:1013800086E08083E0918F04F091900480818061F9
:101390008083E0918F04F091900480818860808345
:1013A000E0918F04F0919004808180688083E091C7
:1013B0008F04F091900480818F7D808380E492E09F
:1013C00018DC1092DE031092DD031092DC03109201
:1013D000DB036EDA87E491E09093DA038093D9031C
:1013E00088E491E09093D8038093D70310922B0563
:1013F00080913005823018F098E090932B0580930F
:101400002E0562E370E080E090E0FBD96091310549
:1014100086E295E00BDB68EE73E080E090E0F1D9C6
:1014200060E386E295E037DCCBE4D6E4CE010197B9
:10143000F1F760E386E295E02EDC2197F1F760E3B7
:1014400086E295E028DC83E592E00197F1F760E21F
:1014500086E295E020DC60912B05606240E086E248
:1014600095E02FDC84E080932C0540E06CE086E280
:1014700095E027DC40E061E086E295E022DCCBE30A
:10148000DFE1CE010197F1F782E080932D0540E086
:1014900066E086E295E015DC40E062E086E295E0F9
:1014A00010DC2197F1F788E08093310560E086E257
:1014B00095E0BCDA82E00E9428018DE00E942801BC
:1014C00087E00E94280161E087E017D870E060E0C3
:1014D00082E09FD869E073E08DE09BD883E592E0DD
:1014E00088DB64E670E080E090E08BD98CE692E0E7
:1014F00080DB6FEF70E082E08CD869E073E08DE014
:1015000088D864EF71E080E090E07BD988E792E0D2
:1015100070DB60E087E00E947D0264EF71E080E0B4
:1015200090E06FD986EA92E064DB61E087E00E9498
:101530007D0260E177E280E090E063D98BEB92E09E
:1015400058DB70E060E082E064D869E073E08DE031
:1015500060D868EE73E080E090E053D989EE92E0C5
:1015600048DB60E087E00E947D0268EE73E080E087
:1015700090E047D98DEF92E03CDB6FEF70E082E0C6
:1015800048D869E073E08DE044D81092DF0368E842
:1015900073E180E090E035D9C091DF03CC2349F0BE
:1015A000C13061F081E0C827C093DF030E9452027E
:1015B000EECF61E087E00E947D02F4CF60E0FACFD9
:1015C000EE0FFF1F881F8BBF0790F691E02D199437
:0415D000F894FFCFBD
:1015D4003030314441353639303231450000000075
:1015E40000E701490176013302A701850199010051
:1015F400000000E804BC04F6059204B504A20493B8
:10160400040000000076064901F605F5050D0A0000
:1016140053657269616C20696E697469616C697A79
:10162400656400496E697469616C697A6564204512
:101634007868617573742070696E7300456E6162B9
:101644006C65642070776D00456E61626C65642022
:10165400636F6E74726F6C2070696E2C2063616CA2
:101664006962726174696F6E2073686F756C64204F
:1016740073746172740044697361626C656420639D
:101684006F6E74726F6C2070696E0044697361626E
:101694006C65642070776D2C2063616C6962726183
:1016A40074696F6E2073686F756C64206265206363
:1016B4006F6D706C6574656400456E61626C656421
:1016C40020636F6E74726F6C2070696E00456E617A
:1016D400626C65642050574D2C2076616C766520D1
:0C16E40073686F756C64206F70656E0099
:00000001FF
